{
	"contracts/MyContract.sol": {
		"Mappings": {
			"abi": [
				{
					"inputs": [],
					"stateMutability": "nonpayable",
					"type": "constructor"
				},
				{
					"inputs": [
						{
							"internalType": "uint256",
							"name": "_id",
							"type": "uint256"
						},
						{
							"internalType": "string",
							"name": "_title",
							"type": "string"
						},
						{
							"internalType": "string",
							"name": "_author",
							"type": "string"
						}
					],
					"name": "addBook",
					"outputs": [],
					"stateMutability": "nonpayable",
					"type": "function"
				},
				{
					"inputs": [
						{
							"internalType": "uint256",
							"name": "_id",
							"type": "uint256"
						},
						{
							"internalType": "string",
							"name": "_title",
							"type": "string"
						},
						{
							"internalType": "string",
							"name": "_author",
							"type": "string"
						}
					],
					"name": "addMyBook",
					"outputs": [],
					"stateMutability": "nonpayable",
					"type": "function"
				},
				{
					"inputs": [
						{
							"internalType": "uint256",
							"name": "",
							"type": "uint256"
						}
					],
					"name": "books",
					"outputs": [
						{
							"internalType": "string",
							"name": "title",
							"type": "string"
						},
						{
							"internalType": "string",
							"name": "author",
							"type": "string"
						}
					],
					"stateMutability": "view",
					"type": "function"
				},
				{
					"inputs": [
						{
							"internalType": "address",
							"name": "",
							"type": "address"
						},
						{
							"internalType": "uint256",
							"name": "",
							"type": "uint256"
						}
					],
					"name": "myBooks",
					"outputs": [
						{
							"internalType": "string",
							"name": "title",
							"type": "string"
						},
						{
							"internalType": "string",
							"name": "author",
							"type": "string"
						}
					],
					"stateMutability": "view",
					"type": "function"
				},
				{
					"inputs": [
						{
							"internalType": "uint256",
							"name": "",
							"type": "uint256"
						}
					],
					"name": "names",
					"outputs": [
						{
							"internalType": "string",
							"name": "",
							"type": "string"
						}
					],
					"stateMutability": "view",
					"type": "function"
				}
			],
			"devdoc": {
				"kind": "dev",
				"methods": {},
				"version": 1
			},
			"evm": {
				"assembly": "    /* \"contracts/MyContract.sol\":1022:1684  contract Mappings{... */\n  mstore(0x40, 0x80)\n    /* \"contracts/MyContract.sol\":1263:1366  constructor() {... */\n  callvalue\n  dup1\n  iszero\n  tag_1\n  jumpi\n  0x00\n  dup1\n  revert\ntag_1:\n  pop\n    /* \"contracts/MyContract.sol\":1287:1304  names[1] = \"Adam\" */\n  mload(0x40)\n  dup1\n  0x40\n  add\n  0x40\n  mstore\n  dup1\n  0x04\n  dup2\n  mstore\n  0x20\n  add\n  0x4164616d00000000000000000000000000000000000000000000000000000000\n  dup2\n  mstore\n  pop\n    /* \"contracts/MyContract.sol\":1287:1292  names */\n  0x00\n    /* \"contracts/MyContract.sol\":1287:1295  names[1] */\n  dup1\n    /* \"contracts/MyContract.sol\":1293:1294  1 */\n  0x01\n    /* \"contracts/MyContract.sol\":1287:1295  names[1] */\n  dup2\n  mstore\n  0x20\n  add\n  swap1\n  dup2\n  mstore\n  0x20\n  add\n  0x00\n  keccak256\n    /* \"contracts/MyContract.sol\":1287:1304  names[1] = \"Adam\" */\n  swap1\n  dup2\n  tag_4\n  swap2\n  swap1\n  tag_5\n  jump\t// in\ntag_4:\n  pop\n    /* \"contracts/MyContract.sol\":1314:1332  names[2] = \"Bruce\" */\n  mload(0x40)\n  dup1\n  0x40\n  add\n  0x40\n  mstore\n  dup1\n  0x05\n  dup2\n  mstore\n  0x20\n  add\n  0x4272756365000000000000000000000000000000000000000000000000000000\n  dup2\n  mstore\n  pop\n    /* \"contracts/MyContract.sol\":1314:1319  names */\n  0x00\n    /* \"contracts/MyContract.sol\":1314:1322  names[2] */\n  dup1\n    /* \"contracts/MyContract.sol\":1320:1321  2 */\n  0x02\n    /* \"contracts/MyContract.sol\":1314:1322  names[2] */\n  dup2\n  mstore\n  0x20\n  add\n  swap1\n  dup2\n  mstore\n  0x20\n  add\n  0x00\n  keccak256\n    /* \"contracts/MyContract.sol\":1314:1332  names[2] = \"Bruce\" */\n  swap1\n  dup2\n  tag_6\n  swap2\n  swap1\n  tag_5\n  jump\t// in\ntag_6:\n  pop\n    /* \"contracts/MyContract.sol\":1342:1359  names[3] = \"Carl\" */\n  mload(0x40)\n  dup1\n  0x40\n  add\n  0x40\n  mstore\n  dup1\n  0x04\n  dup2\n  mstore\n  0x20\n  add\n  0x4361726c00000000000000000000000000000000000000000000000000000000\n  dup2\n  mstore\n  pop\n    /* \"contracts/MyContract.sol\":1342:1347  names */\n  0x00\n    /* \"contracts/MyContract.sol\":1342:1350  names[3] */\n  dup1\n    /* \"contracts/MyContract.sol\":1348:1349  3 */\n  0x03\n    /* \"contracts/MyContract.sol\":1342:1350  names[3] */\n  dup2\n  mstore\n  0x20\n  add\n  swap1\n  dup2\n  mstore\n  0x20\n  add\n  0x00\n  keccak256\n    /* \"contracts/MyContract.sol\":1342:1359  names[3] = \"Carl\" */\n  swap1\n  dup2\n  tag_7\n  swap2\n  swap1\n  tag_5\n  jump\t// in\ntag_7:\n  pop\n    /* \"contracts/MyContract.sol\":1022:1684  contract Mappings{... */\n  jump(tag_8)\n    /* \"#utility.yul\":7:106   */\ntag_9:\n    /* \"#utility.yul\":59:65   */\n  0x00\n    /* \"#utility.yul\":93:98   */\n  dup2\n    /* \"#utility.yul\":87:99   */\n  mload\n    /* \"#utility.yul\":77:99   */\n  swap1\n  pop\n    /* \"#utility.yul\":7:106   */\n  swap2\n  swap1\n  pop\n  jump\t// out\n    /* \"#utility.yul\":112:292   */\ntag_10:\n    /* \"#utility.yul\":160:237   */\n  0x4e487b7100000000000000000000000000000000000000000000000000000000\n    /* \"#utility.yul\":157:158   */\n  0x00\n    /* \"#utility.yul\":150:238   */\n  mstore\n    /* \"#utility.yul\":257:261   */\n  0x41\n    /* \"#utility.yul\":254:255   */\n  0x04\n    /* \"#utility.yul\":247:262   */\n  mstore\n    /* \"#utility.yul\":281:285   */\n  0x24\n    /* \"#utility.yul\":278:279   */\n  0x00\n    /* \"#utility.yul\":271:286   */\n  revert\n    /* \"#utility.yul\":298:478   */\ntag_11:\n    /* \"#utility.yul\":346:423   */\n  0x4e487b7100000000000000000000000000000000000000000000000000000000\n    /* \"#utility.yul\":343:344   */\n  0x00\n    /* \"#utility.yul\":336:424   */\n  mstore\n    /* \"#utility.yul\":443:447   */\n  0x22\n    /* \"#utility.yul\":440:441   */\n  0x04\n    /* \"#utility.yul\":433:448   */\n  mstore\n    /* \"#utility.yul\":467:471   */\n  0x24\n    /* \"#utility.yul\":464:465   */\n  0x00\n    /* \"#utility.yul\":457:472   */\n  revert\n    /* \"#utility.yul\":484:804   */\ntag_12:\n    /* \"#utility.yul\":528:534   */\n  0x00\n    /* \"#utility.yul\":565:566   */\n  0x02\n    /* \"#utility.yul\":559:563   */\n  dup3\n    /* \"#utility.yul\":555:567   */\n  div\n    /* \"#utility.yul\":545:567   */\n  swap1\n  pop\n    /* \"#utility.yul\":612:613   */\n  0x01\n    /* \"#utility.yul\":606:610   */\n  dup3\n    /* \"#utility.yul\":602:614   */\n  and\n    /* \"#utility.yul\":633:651   */\n  dup1\n    /* \"#utility.yul\":623:704   */\n  tag_34\n  jumpi\n    /* \"#utility.yul\":689:693   */\n  0x7f\n    /* \"#utility.yul\":681:687   */\n  dup3\n    /* \"#utility.yul\":677:694   */\n  and\n    /* \"#utility.yul\":667:694   */\n  swap2\n  pop\n    /* \"#utility.yul\":623:704   */\ntag_34:\n    /* \"#utility.yul\":751:753   */\n  0x20\n    /* \"#utility.yul\":743:749   */\n  dup3\n    /* \"#utility.yul\":740:754   */\n  lt\n    /* \"#utility.yul\":720:738   */\n  dup2\n    /* \"#utility.yul\":717:755   */\n  sub\n    /* \"#utility.yul\":714:798   */\n  tag_35\n  jumpi\n    /* \"#utility.yul\":770:788   */\n  tag_36\n  tag_11\n  jump\t// in\ntag_36:\n    /* \"#utility.yul\":714:798   */\ntag_35:\n    /* \"#utility.yul\":535:804   */\n  pop\n    /* \"#utility.yul\":484:804   */\n  swap2\n  swap1\n  pop\n  jump\t// out\n    /* \"#utility.yul\":810:951   */\ntag_13:\n    /* \"#utility.yul\":859:863   */\n  0x00\n    /* \"#utility.yul\":882:885   */\n  dup2\n    /* \"#utility.yul\":874:885   */\n  swap1\n  pop\n    /* \"#utility.yul\":905:908   */\n  dup2\n    /* \"#utility.yul\":902:903   */\n  0x00\n    /* \"#utility.yul\":895:909   */\n  mstore\n    /* \"#utility.yul\":939:943   */\n  0x20\n    /* \"#utility.yul\":936:937   */\n  0x00\n    /* \"#utility.yul\":926:944   */\n  keccak256\n    /* \"#utility.yul\":918:944   */\n  swap1\n  pop\n    /* \"#utility.yul\":810:951   */\n  swap2\n  swap1\n  pop\n  jump\t// out\n    /* \"#utility.yul\":957:1050   */\ntag_14:\n    /* \"#utility.yul\":994:1000   */\n  0x00\n    /* \"#utility.yul\":1041:1043   */\n  0x20\n    /* \"#utility.yul\":1036:1038   */\n  0x1f\n    /* \"#utility.yul\":1029:1034   */\n  dup4\n    /* \"#utility.yul\":1025:1039   */\n  add\n    /* \"#utility.yul\":1021:1044   */\n  div\n    /* \"#utility.yul\":1011:1044   */\n  swap1\n  pop\n    /* \"#utility.yul\":957:1050   */\n  swap2\n  swap1\n  pop\n  jump\t// out\n    /* \"#utility.yul\":1056:1163   */\ntag_15:\n    /* \"#utility.yul\":1100:1108   */\n  0x00\n    /* \"#utility.yul\":1150:1155   */\n  dup3\n    /* \"#utility.yul\":1144:1148   */\n  dup3\n    /* \"#utility.yul\":1140:1156   */\n  shl\n    /* \"#utility.yul\":1119:1156   */\n  swap1\n  pop\n    /* \"#utility.yul\":1056:1163   */\n  swap3\n  swap2\n  pop\n  pop\n  jump\t// out\n    /* \"#utility.yul\":1169:1562   */\ntag_16:\n    /* \"#utility.yul\":1238:1244   */\n  0x00\n    /* \"#utility.yul\":1288:1289   */\n  0x08\n    /* \"#utility.yul\":1276:1286   */\n  dup4\n    /* \"#utility.yul\":1272:1290   */\n  mul\n    /* \"#utility.yul\":1311:1408   */\n  tag_41\n    /* \"#utility.yul\":1341:1407   */\n  0xffffffffffffffffffffffffffffffffffffffffffffffffffffffffffffffff\n    /* \"#utility.yul\":1330:1339   */\n  dup3\n    /* \"#utility.yul\":1311:1408   */\n  tag_15\n  jump\t// in\ntag_41:\n    /* \"#utility.yul\":1429:1468   */\n  tag_42\n    /* \"#utility.yul\":1459:1467   */\n  dup7\n    /* \"#utility.yul\":1448:1457   */\n  dup4\n    /* \"#utility.yul\":1429:1468   */\n  tag_15\n  jump\t// in\ntag_42:\n    /* \"#utility.yul\":1417:1468   */\n  swap6\n  pop\n    /* \"#utility.yul\":1501:1505   */\n  dup1\n    /* \"#utility.yul\":1497:1506   */\n  not\n    /* \"#utility.yul\":1490:1495   */\n  dup5\n    /* \"#utility.yul\":1486:1507   */\n  and\n    /* \"#utility.yul\":1477:1507   */\n  swap4\n  pop\n    /* \"#utility.yul\":1550:1554   */\n  dup1\n    /* \"#utility.yul\":1540:1548   */\n  dup7\n    /* \"#utility.yul\":1536:1555   */\n  and\n    /* \"#utility.yul\":1529:1534   */\n  dup5\n    /* \"#utility.yul\":1526:1556   */\n  or\n    /* \"#utility.yul\":1516:1556   */\n  swap3\n  pop\n    /* \"#utility.yul\":1245:1562   */\n  pop\n  pop\n    /* \"#utility.yul\":1169:1562   */\n  swap4\n  swap3\n  pop\n  pop\n  pop\n  jump\t// out\n    /* \"#utility.yul\":1568:1645   */\ntag_17:\n    /* \"#utility.yul\":1605:1612   */\n  0x00\n    /* \"#utility.yul\":1634:1639   */\n  dup2\n    /* \"#utility.yul\":1623:1639   */\n  swap1\n  pop\n    /* \"#utility.yul\":1568:1645   */\n  swap2\n  swap1\n  pop\n  jump\t// out\n    /* \"#utility.yul\":1651:1711   */\ntag_18:\n    /* \"#utility.yul\":1679:1682   */\n  0x00\n    /* \"#utility.yul\":1700:1705   */\n  dup2\n    /* \"#utility.yul\":1693:1705   */\n  swap1\n  pop\n    /* \"#utility.yul\":1651:1711   */\n  swap2\n  swap1\n  pop\n  jump\t// out\n    /* \"#utility.yul\":1717:1859   */\ntag_19:\n    /* \"#utility.yul\":1767:1776   */\n  0x00\n    /* \"#utility.yul\":1800:1853   */\n  tag_46\n    /* \"#utility.yul\":1818:1852   */\n  tag_47\n    /* \"#utility.yul\":1827:1851   */\n  tag_48\n    /* \"#utility.yul\":1845:1850   */\n  dup5\n    /* \"#utility.yul\":1827:1851   */\n  tag_17\n  jump\t// in\ntag_48:\n    /* \"#utility.yul\":1818:1852   */\n  tag_18\n  jump\t// in\ntag_47:\n    /* \"#utility.yul\":1800:1853   */\n  tag_17\n  jump\t// in\ntag_46:\n    /* \"#utility.yul\":1787:1853   */\n  swap1\n  pop\n    /* \"#utility.yul\":1717:1859   */\n  swap2\n  swap1\n  pop\n  jump\t// out\n    /* \"#utility.yul\":1865:1940   */\ntag_20:\n    /* \"#utility.yul\":1908:1911   */\n  0x00\n    /* \"#utility.yul\":1929:1934   */\n  dup2\n    /* \"#utility.yul\":1922:1934   */\n  swap1\n  pop\n    /* \"#utility.yul\":1865:1940   */\n  swap2\n  swap1\n  pop\n  jump\t// out\n    /* \"#utility.yul\":1946:2215   */\ntag_21:\n    /* \"#utility.yul\":2056:2095   */\n  tag_51\n    /* \"#utility.yul\":2087:2094   */\n  dup4\n    /* \"#utility.yul\":2056:2095   */\n  tag_19\n  jump\t// in\ntag_51:\n    /* \"#utility.yul\":2117:2208   */\n  tag_52\n    /* \"#utility.yul\":2166:2207   */\n  tag_53\n    /* \"#utility.yul\":2190:2206   */\n  dup3\n    /* \"#utility.yul\":2166:2207   */\n  tag_20\n  jump\t// in\ntag_53:\n    /* \"#utility.yul\":2158:2164   */\n  dup5\n    /* \"#utility.yul\":2151:2155   */\n  dup5\n    /* \"#utility.yul\":2145:2156   */\n  sload\n    /* \"#utility.yul\":2117:2208   */\n  tag_16\n  jump\t// in\ntag_52:\n    /* \"#utility.yul\":2111:2115   */\n  dup3\n    /* \"#utility.yul\":2104:2209   */\n  sstore\n    /* \"#utility.yul\":2022:2215   */\n  pop\n    /* \"#utility.yul\":1946:2215   */\n  pop\n  pop\n  pop\n  jump\t// out\n    /* \"#utility.yul\":2221:2294   */\ntag_22:\n    /* \"#utility.yul\":2266:2269   */\n  0x00\n    /* \"#utility.yul\":2221:2294   */\n  swap1\n  jump\t// out\n    /* \"#utility.yul\":2300:2489   */\ntag_23:\n    /* \"#utility.yul\":2377:2409   */\n  tag_56\n  tag_22\n  jump\t// in\ntag_56:\n    /* \"#utility.yul\":2418:2483   */\n  tag_57\n    /* \"#utility.yul\":2476:2482   */\n  dup2\n    /* \"#utility.yul\":2468:2474   */\n  dup5\n    /* \"#utility.yul\":2462:2466   */\n  dup5\n    /* \"#utility.yul\":2418:2483   */\n  tag_21\n  jump\t// in\ntag_57:\n    /* \"#utility.yul\":2353:2489   */\n  pop\n    /* \"#utility.yul\":2300:2489   */\n  pop\n  pop\n  jump\t// out\n    /* \"#utility.yul\":2495:2681   */\ntag_24:\n    /* \"#utility.yul\":2555:2675   */\ntag_59:\n    /* \"#utility.yul\":2572:2575   */\n  dup2\n    /* \"#utility.yul\":2565:2570   */\n  dup2\n    /* \"#utility.yul\":2562:2576   */\n  lt\n    /* \"#utility.yul\":2555:2675   */\n  iszero\n  tag_61\n  jumpi\n    /* \"#utility.yul\":2626:2665   */\n  tag_62\n    /* \"#utility.yul\":2663:2664   */\n  0x00\n    /* \"#utility.yul\":2656:2661   */\n  dup3\n    /* \"#utility.yul\":2626:2665   */\n  tag_23\n  jump\t// in\ntag_62:\n    /* \"#utility.yul\":2599:2600   */\n  0x01\n    /* \"#utility.yul\":2592:2597   */\n  dup2\n    /* \"#utility.yul\":2588:2601   */\n  add\n    /* \"#utility.yul\":2579:2601   */\n  swap1\n  pop\n    /* \"#utility.yul\":2555:2675   */\n  jump(tag_59)\ntag_61:\n    /* \"#utility.yul\":2495:2681   */\n  pop\n  pop\n  jump\t// out\n    /* \"#utility.yul\":2687:3230   */\ntag_25:\n    /* \"#utility.yul\":2788:2790   */\n  0x1f\n    /* \"#utility.yul\":2783:2786   */\n  dup3\n    /* \"#utility.yul\":2780:2791   */\n  gt\n    /* \"#utility.yul\":2777:3223   */\n  iszero\n  tag_64\n  jumpi\n    /* \"#utility.yul\":2822:2860   */\n  tag_65\n    /* \"#utility.yul\":2854:2859   */\n  dup2\n    /* \"#utility.yul\":2822:2860   */\n  tag_13\n  jump\t// in\ntag_65:\n    /* \"#utility.yul\":2906:2935   */\n  tag_66\n    /* \"#utility.yul\":2924:2934   */\n  dup5\n    /* \"#utility.yul\":2906:2935   */\n  tag_14\n  jump\t// in\ntag_66:\n    /* \"#utility.yul\":2896:2904   */\n  dup2\n    /* \"#utility.yul\":2892:2936   */\n  add\n    /* \"#utility.yul\":3089:3091   */\n  0x20\n    /* \"#utility.yul\":3077:3087   */\n  dup6\n    /* \"#utility.yul\":3074:3092   */\n  lt\n    /* \"#utility.yul\":3071:3120   */\n  iszero\n  tag_67\n  jumpi\n    /* \"#utility.yul\":3110:3118   */\n  dup2\n    /* \"#utility.yul\":3095:3118   */\n  swap1\n  pop\n    /* \"#utility.yul\":3071:3120   */\ntag_67:\n    /* \"#utility.yul\":3133:3213   */\n  tag_68\n    /* \"#utility.yul\":3189:3211   */\n  tag_69\n    /* \"#utility.yul\":3207:3210   */\n  dup6\n    /* \"#utility.yul\":3189:3211   */\n  tag_14\n  jump\t// in\ntag_69:\n    /* \"#utility.yul\":3179:3187   */\n  dup4\n    /* \"#utility.yul\":3175:3212   */\n  add\n    /* \"#utility.yul\":3162:3173   */\n  dup3\n    /* \"#utility.yul\":3133:3213   */\n  tag_24\n  jump\t// in\ntag_68:\n    /* \"#utility.yul\":2792:3223   */\n  pop\n  pop\n    /* \"#utility.yul\":2777:3223   */\ntag_64:\n    /* \"#utility.yul\":2687:3230   */\n  pop\n  pop\n  pop\n  jump\t// out\n    /* \"#utility.yul\":3236:3353   */\ntag_26:\n    /* \"#utility.yul\":3290:3298   */\n  0x00\n    /* \"#utility.yul\":3340:3345   */\n  dup3\n    /* \"#utility.yul\":3334:3338   */\n  dup3\n    /* \"#utility.yul\":3330:3346   */\n  shr\n    /* \"#utility.yul\":3309:3346   */\n  swap1\n  pop\n    /* \"#utility.yul\":3236:3353   */\n  swap3\n  swap2\n  pop\n  pop\n  jump\t// out\n    /* \"#utility.yul\":3359:3528   */\ntag_27:\n    /* \"#utility.yul\":3403:3409   */\n  0x00\n    /* \"#utility.yul\":3436:3487   */\n  tag_72\n    /* \"#utility.yul\":3484:3485   */\n  0x00\n    /* \"#utility.yul\":3480:3486   */\n  not\n    /* \"#utility.yul\":3472:3477   */\n  dup5\n    /* \"#utility.yul\":3469:3470   */\n  0x08\n    /* \"#utility.yul\":3465:3478   */\n  mul\n    /* \"#utility.yul\":3436:3487   */\n  tag_26\n  jump\t// in\ntag_72:\n    /* \"#utility.yul\":3432:3488   */\n  not\n    /* \"#utility.yul\":3517:3521   */\n  dup1\n    /* \"#utility.yul\":3511:3515   */\n  dup4\n    /* \"#utility.yul\":3507:3522   */\n  and\n    /* \"#utility.yul\":3497:3522   */\n  swap2\n  pop\n    /* \"#utility.yul\":3410:3528   */\n  pop\n    /* \"#utility.yul\":3359:3528   */\n  swap3\n  swap2\n  pop\n  pop\n  jump\t// out\n    /* \"#utility.yul\":3533:3828   */\ntag_28:\n    /* \"#utility.yul\":3609:3613   */\n  0x00\n    /* \"#utility.yul\":3755:3784   */\n  tag_74\n    /* \"#utility.yul\":3780:3783   */\n  dup4\n    /* \"#utility.yul\":3774:3778   */\n  dup4\n    /* \"#utility.yul\":3755:3784   */\n  tag_27\n  jump\t// in\ntag_74:\n    /* \"#utility.yul\":3747:3784   */\n  swap2\n  pop\n    /* \"#utility.yul\":3817:3820   */\n  dup3\n    /* \"#utility.yul\":3814:3815   */\n  0x02\n    /* \"#utility.yul\":3810:3821   */\n  mul\n    /* \"#utility.yul\":3804:3808   */\n  dup3\n    /* \"#utility.yul\":3801:3822   */\n  or\n    /* \"#utility.yul\":3793:3822   */\n  swap1\n  pop\n    /* \"#utility.yul\":3533:3828   */\n  swap3\n  swap2\n  pop\n  pop\n  jump\t// out\n    /* \"#utility.yul\":3833:5228   */\ntag_5:\n    /* \"#utility.yul\":3950:3987   */\n  tag_76\n    /* \"#utility.yul\":3983:3986   */\n  dup3\n    /* \"#utility.yul\":3950:3987   */\n  tag_9\n  jump\t// in\ntag_76:\n    /* \"#utility.yul\":4052:4070   */\n  0xffffffffffffffff\n    /* \"#utility.yul\":4044:4050   */\n  dup2\n    /* \"#utility.yul\":4041:4071   */\n  gt\n    /* \"#utility.yul\":4038:4094   */\n  iszero\n  tag_77\n  jumpi\n    /* \"#utility.yul\":4074:4092   */\n  tag_78\n  tag_10\n  jump\t// in\ntag_78:\n    /* \"#utility.yul\":4038:4094   */\ntag_77:\n    /* \"#utility.yul\":4118:4156   */\n  tag_79\n    /* \"#utility.yul\":4150:4154   */\n  dup3\n    /* \"#utility.yul\":4144:4155   */\n  sload\n    /* \"#utility.yul\":4118:4156   */\n  tag_12\n  jump\t// in\ntag_79:\n    /* \"#utility.yul\":4203:4270   */\n  tag_80\n    /* \"#utility.yul\":4263:4269   */\n  dup3\n    /* \"#utility.yul\":4255:4261   */\n  dup3\n    /* \"#utility.yul\":4249:4253   */\n  dup6\n    /* \"#utility.yul\":4203:4270   */\n  tag_25\n  jump\t// in\ntag_80:\n    /* \"#utility.yul\":4297:4298   */\n  0x00\n    /* \"#utility.yul\":4321:4325   */\n  0x20\n    /* \"#utility.yul\":4308:4325   */\n  swap1\n  pop\n    /* \"#utility.yul\":4353:4355   */\n  0x1f\n    /* \"#utility.yul\":4345:4351   */\n  dup4\n    /* \"#utility.yul\":4342:4356   */\n  gt\n    /* \"#utility.yul\":4370:4371   */\n  0x01\n    /* \"#utility.yul\":4365:4983   */\n  dup2\n  eq\n  tag_82\n  jumpi\n    /* \"#utility.yul\":5027:5028   */\n  0x00\n    /* \"#utility.yul\":5044:5050   */\n  dup5\n    /* \"#utility.yul\":5041:5118   */\n  iszero\n  tag_83\n  jumpi\n    /* \"#utility.yul\":5093:5102   */\n  dup3\n    /* \"#utility.yul\":5088:5091   */\n  dup8\n    /* \"#utility.yul\":5084:5103   */\n  add\n    /* \"#utility.yul\":5078:5104   */\n  mload\n    /* \"#utility.yul\":5069:5104   */\n  swap1\n  pop\n    /* \"#utility.yul\":5041:5118   */\ntag_83:\n    /* \"#utility.yul\":5144:5211   */\n  tag_84\n    /* \"#utility.yul\":5204:5210   */\n  dup6\n    /* \"#utility.yul\":5197:5202   */\n  dup3\n    /* \"#utility.yul\":5144:5211   */\n  tag_28\n  jump\t// in\ntag_84:\n    /* \"#utility.yul\":5138:5142   */\n  dup7\n    /* \"#utility.yul\":5131:5212   */\n  sstore\n    /* \"#utility.yul\":5000:5222   */\n  pop\n    /* \"#utility.yul\":4335:5222   */\n  jump(tag_81)\n    /* \"#utility.yul\":4365:4983   */\ntag_82:\n    /* \"#utility.yul\":4417:4421   */\n  0x1f\n    /* \"#utility.yul\":4413:4422   */\n  not\n    /* \"#utility.yul\":4405:4411   */\n  dup5\n    /* \"#utility.yul\":4401:4423   */\n  and\n    /* \"#utility.yul\":4451:4488   */\n  tag_85\n    /* \"#utility.yul\":4483:4487   */\n  dup7\n    /* \"#utility.yul\":4451:4488   */\n  tag_13\n  jump\t// in\ntag_85:\n    /* \"#utility.yul\":4510:4511   */\n  0x00\n    /* \"#utility.yul\":4524:4732   */\ntag_86:\n    /* \"#utility.yul\":4538:4545   */\n  dup3\n    /* \"#utility.yul\":4535:4536   */\n  dup2\n    /* \"#utility.yul\":4532:4546   */\n  lt\n    /* \"#utility.yul\":4524:4732   */\n  iszero\n  tag_88\n  jumpi\n    /* \"#utility.yul\":4617:4626   */\n  dup5\n    /* \"#utility.yul\":4612:4615   */\n  dup10\n    /* \"#utility.yul\":4608:4627   */\n  add\n    /* \"#utility.yul\":4602:4628   */\n  mload\n    /* \"#utility.yul\":4594:4600   */\n  dup3\n    /* \"#utility.yul\":4587:4629   */\n  sstore\n    /* \"#utility.yul\":4668:4669   */\n  0x01\n    /* \"#utility.yul\":4660:4666   */\n  dup3\n    /* \"#utility.yul\":4656:4670   */\n  add\n    /* \"#utility.yul\":4646:4670   */\n  swap2\n  pop\n    /* \"#utility.yul\":4715:4717   */\n  0x20\n    /* \"#utility.yul\":4704:4713   */\n  dup6\n    /* \"#utility.yul\":4700:4718   */\n  add\n    /* \"#utility.yul\":4687:4718   */\n  swap5\n  pop\n    /* \"#utility.yul\":4561:4565   */\n  0x20\n    /* \"#utility.yul\":4558:4559   */\n  dup2\n    /* \"#utility.yul\":4554:4566   */\n  add\n    /* \"#utility.yul\":4549:4566   */\n  swap1\n  pop\n    /* \"#utility.yul\":4524:4732   */\n  jump(tag_86)\ntag_88:\n    /* \"#utility.yul\":4760:4766   */\n  dup7\n    /* \"#utility.yul\":4751:4758   */\n  dup4\n    /* \"#utility.yul\":4748:4767   */\n  lt\n    /* \"#utility.yul\":4745:4924   */\n  iszero\n  tag_89\n  jumpi\n    /* \"#utility.yul\":4818:4827   */\n  dup5\n    /* \"#utility.yul\":4813:4816   */\n  dup10\n    /* \"#utility.yul\":4809:4828   */\n  add\n    /* \"#utility.yul\":4803:4829   */\n  mload\n    /* \"#utility.yul\":4861:4909   */\n  tag_90\n    /* \"#utility.yul\":4903:4907   */\n  0x1f\n    /* \"#utility.yul\":4895:4901   */\n  dup10\n    /* \"#utility.yul\":4891:4908   */\n  and\n    /* \"#utility.yul\":4880:4889   */\n  dup3\n    /* \"#utility.yul\":4861:4909   */\n  tag_27\n  jump\t// in\ntag_90:\n    /* \"#utility.yul\":4853:4859   */\n  dup4\n    /* \"#utility.yul\":4846:4910   */\n  sstore\n    /* \"#utility.yul\":4768:4924   */\n  pop\n    /* \"#utility.yul\":4745:4924   */\ntag_89:\n    /* \"#utility.yul\":4970:4971   */\n  0x01\n    /* \"#utility.yul\":4966:4967   */\n  0x02\n    /* \"#utility.yul\":4958:4964   */\n  dup9\n    /* \"#utility.yul\":4954:4968   */\n  mul\n    /* \"#utility.yul\":4950:4972   */\n  add\n    /* \"#utility.yul\":4944:4948   */\n  dup9\n    /* \"#utility.yul\":4937:4973   */\n  sstore\n    /* \"#utility.yul\":4372:4983   */\n  pop\n  pop\n  pop\n    /* \"#utility.yul\":4335:5222   */\ntag_81:\n  pop\n    /* \"#utility.yul\":3925:5228   */\n  pop\n  pop\n  pop\n    /* \"#utility.yul\":3833:5228   */\n  pop\n  pop\n  jump\t// out\n    /* \"contracts/MyContract.sol\":1022:1684  contract Mappings{... */\ntag_8:\n  dataSize(sub_0)\n  dup1\n  dataOffset(sub_0)\n  0x00\n  codecopy\n  0x00\n  return\nstop\n\nsub_0: assembly {\n        /* \"contracts/MyContract.sol\":1022:1684  contract Mappings{... */\n      mstore(0x40, 0x80)\n      callvalue\n      dup1\n      iszero\n      tag_1\n      jumpi\n      0x00\n      dup1\n      revert\n    tag_1:\n      pop\n      jumpi(tag_2, lt(calldatasize, 0x04))\n      shr(0xe0, calldataload(0x00))\n      dup1\n      0x028414f2\n      eq\n      tag_3\n      jumpi\n      dup1\n      0x27d3553f\n      eq\n      tag_4\n      jumpi\n      dup1\n      0x4622ab03\n      eq\n      tag_5\n      jumpi\n      dup1\n      0x493ec707\n      eq\n      tag_6\n      jumpi\n      dup1\n      0x68744046\n      eq\n      tag_7\n      jumpi\n    tag_2:\n      0x00\n      dup1\n      revert\n        /* \"contracts/MyContract.sol\":1372:1531  function addBook(... */\n    tag_3:\n      tag_8\n      0x04\n      dup1\n      calldatasize\n      sub\n      dup2\n      add\n      swap1\n      tag_9\n      swap2\n      swap1\n      tag_10\n      jump\t// in\n    tag_9:\n      tag_11\n      jump\t// in\n    tag_8:\n      stop\n        /* \"contracts/MyContract.sol\":1127:1183  mapping(address => mapping(uint => Book)) public myBooks */\n    tag_4:\n      tag_12\n      0x04\n      dup1\n      calldatasize\n      sub\n      dup2\n      add\n      swap1\n      tag_13\n      swap2\n      swap1\n      tag_14\n      jump\t// in\n    tag_13:\n      tag_15\n      jump\t// in\n    tag_12:\n      mload(0x40)\n      tag_16\n      swap3\n      swap2\n      swap1\n      tag_17\n      jump\t// in\n    tag_16:\n      mload(0x40)\n      dup1\n      swap2\n      sub\n      swap1\n      return\n        /* \"contracts/MyContract.sol\":1045:1081  mapping(uint => string) public names */\n    tag_5:\n      tag_18\n      0x04\n      dup1\n      calldatasize\n      sub\n      dup2\n      add\n      swap1\n      tag_19\n      swap2\n      swap1\n      tag_20\n      jump\t// in\n    tag_19:\n      tag_21\n      jump\t// in\n    tag_18:\n      mload(0x40)\n      tag_22\n      swap2\n      swap1\n      tag_23\n      jump\t// in\n    tag_22:\n      mload(0x40)\n      dup1\n      swap2\n      sub\n      swap1\n      return\n        /* \"contracts/MyContract.sol\":1537:1682  function addMyBook(uint _id, string memory _title, string memory _author) public{... */\n    tag_6:\n      tag_24\n      0x04\n      dup1\n      calldatasize\n      sub\n      dup2\n      add\n      swap1\n      tag_25\n      swap2\n      swap1\n      tag_10\n      jump\t// in\n    tag_25:\n      tag_26\n      jump\t// in\n    tag_24:\n      stop\n        /* \"contracts/MyContract.sol\":1087:1121  mapping(uint => Book) public books */\n    tag_7:\n      tag_27\n      0x04\n      dup1\n      calldatasize\n      sub\n      dup2\n      add\n      swap1\n      tag_28\n      swap2\n      swap1\n      tag_20\n      jump\t// in\n    tag_28:\n      tag_29\n      jump\t// in\n    tag_27:\n      mload(0x40)\n      tag_30\n      swap3\n      swap2\n      swap1\n      tag_17\n      jump\t// in\n    tag_30:\n      mload(0x40)\n      dup1\n      swap2\n      sub\n      swap1\n      return\n        /* \"contracts/MyContract.sol\":1372:1531  function addBook(... */\n    tag_11:\n        /* \"contracts/MyContract.sol\":1503:1524  Book(_title, _author) */\n      mload(0x40)\n      dup1\n      0x40\n      add\n      0x40\n      mstore\n      dup1\n        /* \"contracts/MyContract.sol\":1508:1514  _title */\n      dup4\n        /* \"contracts/MyContract.sol\":1503:1524  Book(_title, _author) */\n      dup2\n      mstore\n      0x20\n      add\n        /* \"contracts/MyContract.sol\":1516:1523  _author */\n      dup3\n        /* \"contracts/MyContract.sol\":1503:1524  Book(_title, _author) */\n      dup2\n      mstore\n      pop\n        /* \"contracts/MyContract.sol\":1490:1495  books */\n      0x01\n        /* \"contracts/MyContract.sol\":1490:1500  books[_id] */\n      0x00\n        /* \"contracts/MyContract.sol\":1496:1499  _id */\n      dup6\n        /* \"contracts/MyContract.sol\":1490:1500  books[_id] */\n      dup2\n      mstore\n      0x20\n      add\n      swap1\n      dup2\n      mstore\n      0x20\n      add\n      0x00\n      keccak256\n        /* \"contracts/MyContract.sol\":1490:1524  books[_id] = Book(_title, _author) */\n      0x00\n      dup3\n      add\n      mload\n      dup2\n      0x00\n      add\n      swap1\n      dup2\n      tag_32\n      swap2\n      swap1\n      tag_33\n      jump\t// in\n    tag_32:\n      pop\n      0x20\n      dup3\n      add\n      mload\n      dup2\n      0x01\n      add\n      swap1\n      dup2\n      tag_34\n      swap2\n      swap1\n      tag_33\n      jump\t// in\n    tag_34:\n      pop\n      swap1\n      pop\n      pop\n        /* \"contracts/MyContract.sol\":1372:1531  function addBook(... */\n      pop\n      pop\n      pop\n      jump\t// out\n        /* \"contracts/MyContract.sol\":1127:1183  mapping(address => mapping(uint => Book)) public myBooks */\n    tag_15:\n      mstore(0x20, 0x02)\n      dup2\n      0x00\n      mstore\n      mstore(0x20, keccak256(0x00, 0x40))\n      dup1\n      0x00\n      mstore\n      keccak256(0x00, 0x40)\n      0x00\n      swap2\n      pop\n      swap2\n      pop\n      pop\n      dup1\n      0x00\n      add\n      dup1\n      sload\n      tag_35\n      swap1\n      tag_36\n      jump\t// in\n    tag_35:\n      dup1\n      0x1f\n      add\n      0x20\n      dup1\n      swap2\n      div\n      mul\n      0x20\n      add\n      mload(0x40)\n      swap1\n      dup2\n      add\n      0x40\n      mstore\n      dup1\n      swap3\n      swap2\n      swap1\n      dup2\n      dup2\n      mstore\n      0x20\n      add\n      dup3\n      dup1\n      sload\n      tag_37\n      swap1\n      tag_36\n      jump\t// in\n    tag_37:\n      dup1\n      iszero\n      tag_38\n      jumpi\n      dup1\n      0x1f\n      lt\n      tag_39\n      jumpi\n      0x0100\n      dup1\n      dup4\n      sload\n      div\n      mul\n      dup4\n      mstore\n      swap2\n      0x20\n      add\n      swap2\n      jump(tag_38)\n    tag_39:\n      dup3\n      add\n      swap2\n      swap1\n      0x00\n      mstore\n      keccak256(0x00, 0x20)\n      swap1\n    tag_40:\n      dup2\n      sload\n      dup2\n      mstore\n      swap1\n      0x01\n      add\n      swap1\n      0x20\n      add\n      dup1\n      dup4\n      gt\n      tag_40\n      jumpi\n      dup3\n      swap1\n      sub\n      0x1f\n      and\n      dup3\n      add\n      swap2\n    tag_38:\n      pop\n      pop\n      pop\n      pop\n      pop\n      swap1\n      dup1\n      0x01\n      add\n      dup1\n      sload\n      tag_41\n      swap1\n      tag_36\n      jump\t// in\n    tag_41:\n      dup1\n      0x1f\n      add\n      0x20\n      dup1\n      swap2\n      div\n      mul\n      0x20\n      add\n      mload(0x40)\n      swap1\n      dup2\n      add\n      0x40\n      mstore\n      dup1\n      swap3\n      swap2\n      swap1\n      dup2\n      dup2\n      mstore\n      0x20\n      add\n      dup3\n      dup1\n      sload\n      tag_42\n      swap1\n      tag_36\n      jump\t// in\n    tag_42:\n      dup1\n      iszero\n      tag_43\n      jumpi\n      dup1\n      0x1f\n      lt\n      tag_44\n      jumpi\n      0x0100\n      dup1\n      dup4\n      sload\n      div\n      mul\n      dup4\n      mstore\n      swap2\n      0x20\n      add\n      swap2\n      jump(tag_43)\n    tag_44:\n      dup3\n      add\n      swap2\n      swap1\n      0x00\n      mstore\n      keccak256(0x00, 0x20)\n      swap1\n    tag_45:\n      dup2\n      sload\n      dup2\n      mstore\n      swap1\n      0x01\n      add\n      swap1\n      0x20\n      add\n      dup1\n      dup4\n      gt\n      tag_45\n      jumpi\n      dup3\n      swap1\n      sub\n      0x1f\n      and\n      dup3\n      add\n      swap2\n    tag_43:\n      pop\n      pop\n      pop\n      pop\n      pop\n      swap1\n      pop\n      dup3\n      jump\t// out\n        /* \"contracts/MyContract.sol\":1045:1081  mapping(uint => string) public names */\n    tag_21:\n      mstore(0x20, 0x00)\n      dup1\n      0x00\n      mstore\n      keccak256(0x00, 0x40)\n      0x00\n      swap2\n      pop\n      swap1\n      pop\n      dup1\n      sload\n      tag_46\n      swap1\n      tag_36\n      jump\t// in\n    tag_46:\n      dup1\n      0x1f\n      add\n      0x20\n      dup1\n      swap2\n      div\n      mul\n      0x20\n      add\n      mload(0x40)\n      swap1\n      dup2\n      add\n      0x40\n      mstore\n      dup1\n      swap3\n      swap2\n      swap1\n      dup2\n      dup2\n      mstore\n      0x20\n      add\n      dup3\n      dup1\n      sload\n      tag_47\n      swap1\n      tag_36\n      jump\t// in\n    tag_47:\n      dup1\n      iszero\n      tag_48\n      jumpi\n      dup1\n      0x1f\n      lt\n      tag_49\n      jumpi\n      0x0100\n      dup1\n      dup4\n      sload\n      div\n      mul\n      dup4\n      mstore\n      swap2\n      0x20\n      add\n      swap2\n      jump(tag_48)\n    tag_49:\n      dup3\n      add\n      swap2\n      swap1\n      0x00\n      mstore\n      keccak256(0x00, 0x20)\n      swap1\n    tag_50:\n      dup2\n      sload\n      dup2\n      mstore\n      swap1\n      0x01\n      add\n      swap1\n      0x20\n      add\n      dup1\n      dup4\n      gt\n      tag_50\n      jumpi\n      dup3\n      swap1\n      sub\n      0x1f\n      and\n      dup3\n      add\n      swap2\n    tag_48:\n      pop\n      pop\n      pop\n      pop\n      pop\n      dup2\n      jump\t// out\n        /* \"contracts/MyContract.sol\":1537:1682  function addMyBook(uint _id, string memory _title, string memory _author) public{... */\n    tag_26:\n        /* \"contracts/MyContract.sol\":1654:1675  Book(_title, _author) */\n      mload(0x40)\n      dup1\n      0x40\n      add\n      0x40\n      mstore\n      dup1\n        /* \"contracts/MyContract.sol\":1659:1665  _title */\n      dup4\n        /* \"contracts/MyContract.sol\":1654:1675  Book(_title, _author) */\n      dup2\n      mstore\n      0x20\n      add\n        /* \"contracts/MyContract.sol\":1667:1674  _author */\n      dup3\n        /* \"contracts/MyContract.sol\":1654:1675  Book(_title, _author) */\n      dup2\n      mstore\n      pop\n        /* \"contracts/MyContract.sol\":1627:1634  myBooks */\n      0x02\n        /* \"contracts/MyContract.sol\":1627:1646  myBooks[msg.sender] */\n      0x00\n        /* \"contracts/MyContract.sol\":1635:1645  msg.sender */\n      caller\n        /* \"contracts/MyContract.sol\":1627:1646  myBooks[msg.sender] */\n      0xffffffffffffffffffffffffffffffffffffffff\n      and\n      0xffffffffffffffffffffffffffffffffffffffff\n      and\n      dup2\n      mstore\n      0x20\n      add\n      swap1\n      dup2\n      mstore\n      0x20\n      add\n      0x00\n      keccak256\n        /* \"contracts/MyContract.sol\":1627:1651  myBooks[msg.sender][_id] */\n      0x00\n        /* \"contracts/MyContract.sol\":1647:1650  _id */\n      dup6\n        /* \"contracts/MyContract.sol\":1627:1651  myBooks[msg.sender][_id] */\n      dup2\n      mstore\n      0x20\n      add\n      swap1\n      dup2\n      mstore\n      0x20\n      add\n      0x00\n      keccak256\n        /* \"contracts/MyContract.sol\":1627:1675  myBooks[msg.sender][_id] = Book(_title, _author) */\n      0x00\n      dup3\n      add\n      mload\n      dup2\n      0x00\n      add\n      swap1\n      dup2\n      tag_52\n      swap2\n      swap1\n      tag_33\n      jump\t// in\n    tag_52:\n      pop\n      0x20\n      dup3\n      add\n      mload\n      dup2\n      0x01\n      add\n      swap1\n      dup2\n      tag_53\n      swap2\n      swap1\n      tag_33\n      jump\t// in\n    tag_53:\n      pop\n      swap1\n      pop\n      pop\n        /* \"contracts/MyContract.sol\":1537:1682  function addMyBook(uint _id, string memory _title, string memory _author) public{... */\n      pop\n      pop\n      pop\n      jump\t// out\n        /* \"contracts/MyContract.sol\":1087:1121  mapping(uint => Book) public books */\n    tag_29:\n      mstore(0x20, 0x01)\n      dup1\n      0x00\n      mstore\n      keccak256(0x00, 0x40)\n      0x00\n      swap2\n      pop\n      swap1\n      pop\n      dup1\n      0x00\n      add\n      dup1\n      sload\n      tag_54\n      swap1\n      tag_36\n      jump\t// in\n    tag_54:\n      dup1\n      0x1f\n      add\n      0x20\n      dup1\n      swap2\n      div\n      mul\n      0x20\n      add\n      mload(0x40)\n      swap1\n      dup2\n      add\n      0x40\n      mstore\n      dup1\n      swap3\n      swap2\n      swap1\n      dup2\n      dup2\n      mstore\n      0x20\n      add\n      dup3\n      dup1\n      sload\n      tag_55\n      swap1\n      tag_36\n      jump\t// in\n    tag_55:\n      dup1\n      iszero\n      tag_56\n      jumpi\n      dup1\n      0x1f\n      lt\n      tag_57\n      jumpi\n      0x0100\n      dup1\n      dup4\n      sload\n      div\n      mul\n      dup4\n      mstore\n      swap2\n      0x20\n      add\n      swap2\n      jump(tag_56)\n    tag_57:\n      dup3\n      add\n      swap2\n      swap1\n      0x00\n      mstore\n      keccak256(0x00, 0x20)\n      swap1\n    tag_58:\n      dup2\n      sload\n      dup2\n      mstore\n      swap1\n      0x01\n      add\n      swap1\n      0x20\n      add\n      dup1\n      dup4\n      gt\n      tag_58\n      jumpi\n      dup3\n      swap1\n      sub\n      0x1f\n      and\n      dup3\n      add\n      swap2\n    tag_56:\n      pop\n      pop\n      pop\n      pop\n      pop\n      swap1\n      dup1\n      0x01\n      add\n      dup1\n      sload\n      tag_59\n      swap1\n      tag_36\n      jump\t// in\n    tag_59:\n      dup1\n      0x1f\n      add\n      0x20\n      dup1\n      swap2\n      div\n      mul\n      0x20\n      add\n      mload(0x40)\n      swap1\n      dup2\n      add\n      0x40\n      mstore\n      dup1\n      swap3\n      swap2\n      swap1\n      dup2\n      dup2\n      mstore\n      0x20\n      add\n      dup3\n      dup1\n      sload\n      tag_60\n      swap1\n      tag_36\n      jump\t// in\n    tag_60:\n      dup1\n      iszero\n      tag_61\n      jumpi\n      dup1\n      0x1f\n      lt\n      tag_62\n      jumpi\n      0x0100\n      dup1\n      dup4\n      sload\n      div\n      mul\n      dup4\n      mstore\n      swap2\n      0x20\n      add\n      swap2\n      jump(tag_61)\n    tag_62:\n      dup3\n      add\n      swap2\n      swap1\n      0x00\n      mstore\n      keccak256(0x00, 0x20)\n      swap1\n    tag_63:\n      dup2\n      sload\n      dup2\n      mstore\n      swap1\n      0x01\n      add\n      swap1\n      0x20\n      add\n      dup1\n      dup4\n      gt\n      tag_63\n      jumpi\n      dup3\n      swap1\n      sub\n      0x1f\n      and\n      dup3\n      add\n      swap2\n    tag_61:\n      pop\n      pop\n      pop\n      pop\n      pop\n      swap1\n      pop\n      dup3\n      jump\t// out\n        /* \"#utility.yul\":7:82   */\n    tag_64:\n        /* \"#utility.yul\":40:46   */\n      0x00\n        /* \"#utility.yul\":73:75   */\n      0x40\n        /* \"#utility.yul\":67:76   */\n      mload\n        /* \"#utility.yul\":57:76   */\n      swap1\n      pop\n        /* \"#utility.yul\":7:82   */\n      swap1\n      jump\t// out\n        /* \"#utility.yul\":88:205   */\n    tag_65:\n        /* \"#utility.yul\":197:198   */\n      0x00\n        /* \"#utility.yul\":194:195   */\n      dup1\n        /* \"#utility.yul\":187:199   */\n      revert\n        /* \"#utility.yul\":211:328   */\n    tag_66:\n        /* \"#utility.yul\":320:321   */\n      0x00\n        /* \"#utility.yul\":317:318   */\n      dup1\n        /* \"#utility.yul\":310:322   */\n      revert\n        /* \"#utility.yul\":334:411   */\n    tag_67:\n        /* \"#utility.yul\":371:378   */\n      0x00\n        /* \"#utility.yul\":400:405   */\n      dup2\n        /* \"#utility.yul\":389:405   */\n      swap1\n      pop\n        /* \"#utility.yul\":334:411   */\n      swap2\n      swap1\n      pop\n      jump\t// out\n        /* \"#utility.yul\":417:539   */\n    tag_68:\n        /* \"#utility.yul\":490:514   */\n      tag_110\n        /* \"#utility.yul\":508:513   */\n      dup2\n        /* \"#utility.yul\":490:514   */\n      tag_67\n      jump\t// in\n    tag_110:\n        /* \"#utility.yul\":483:488   */\n      dup2\n        /* \"#utility.yul\":480:515   */\n      eq\n        /* \"#utility.yul\":470:533   */\n      tag_111\n      jumpi\n        /* \"#utility.yul\":529:530   */\n      0x00\n        /* \"#utility.yul\":526:527   */\n      dup1\n        /* \"#utility.yul\":519:531   */\n      revert\n        /* \"#utility.yul\":470:533   */\n    tag_111:\n        /* \"#utility.yul\":417:539   */\n      pop\n      jump\t// out\n        /* \"#utility.yul\":545:684   */\n    tag_69:\n        /* \"#utility.yul\":591:596   */\n      0x00\n        /* \"#utility.yul\":629:635   */\n      dup2\n        /* \"#utility.yul\":616:636   */\n      calldataload\n        /* \"#utility.yul\":607:636   */\n      swap1\n      pop\n        /* \"#utility.yul\":645:678   */\n      tag_113\n        /* \"#utility.yul\":672:677   */\n      dup2\n        /* \"#utility.yul\":645:678   */\n      tag_68\n      jump\t// in\n    tag_113:\n        /* \"#utility.yul\":545:684   */\n      swap3\n      swap2\n      pop\n      pop\n      jump\t// out\n        /* \"#utility.yul\":690:807   */\n    tag_70:\n        /* \"#utility.yul\":799:800   */\n      0x00\n        /* \"#utility.yul\":796:797   */\n      dup1\n        /* \"#utility.yul\":789:801   */\n      revert\n        /* \"#utility.yul\":813:930   */\n    tag_71:\n        /* \"#utility.yul\":922:923   */\n      0x00\n        /* \"#utility.yul\":919:920   */\n      dup1\n        /* \"#utility.yul\":912:924   */\n      revert\n        /* \"#utility.yul\":936:1038   */\n    tag_72:\n        /* \"#utility.yul\":977:983   */\n      0x00\n        /* \"#utility.yul\":1028:1030   */\n      0x1f\n        /* \"#utility.yul\":1024:1031   */\n      not\n        /* \"#utility.yul\":1019:1021   */\n      0x1f\n        /* \"#utility.yul\":1012:1017   */\n      dup4\n        /* \"#utility.yul\":1008:1022   */\n      add\n        /* \"#utility.yul\":1004:1032   */\n      and\n        /* \"#utility.yul\":994:1032   */\n      swap1\n      pop\n        /* \"#utility.yul\":936:1038   */\n      swap2\n      swap1\n      pop\n      jump\t// out\n        /* \"#utility.yul\":1044:1224   */\n    tag_73:\n        /* \"#utility.yul\":1092:1169   */\n      0x4e487b7100000000000000000000000000000000000000000000000000000000\n        /* \"#utility.yul\":1089:1090   */\n      0x00\n        /* \"#utility.yul\":1082:1170   */\n      mstore\n        /* \"#utility.yul\":1189:1193   */\n      0x41\n        /* \"#utility.yul\":1186:1187   */\n      0x04\n        /* \"#utility.yul\":1179:1194   */\n      mstore\n        /* \"#utility.yul\":1213:1217   */\n      0x24\n        /* \"#utility.yul\":1210:1211   */\n      0x00\n        /* \"#utility.yul\":1203:1218   */\n      revert\n        /* \"#utility.yul\":1230:1511   */\n    tag_74:\n        /* \"#utility.yul\":1313:1340   */\n      tag_119\n        /* \"#utility.yul\":1335:1339   */\n      dup3\n        /* \"#utility.yul\":1313:1340   */\n      tag_72\n      jump\t// in\n    tag_119:\n        /* \"#utility.yul\":1305:1311   */\n      dup2\n        /* \"#utility.yul\":1301:1341   */\n      add\n        /* \"#utility.yul\":1443:1449   */\n      dup2\n        /* \"#utility.yul\":1431:1441   */\n      dup2\n        /* \"#utility.yul\":1428:1450   */\n      lt\n        /* \"#utility.yul\":1407:1425   */\n      0xffffffffffffffff\n        /* \"#utility.yul\":1395:1405   */\n      dup3\n        /* \"#utility.yul\":1392:1426   */\n      gt\n        /* \"#utility.yul\":1389:1451   */\n      or\n        /* \"#utility.yul\":1386:1474   */\n      iszero\n      tag_120\n      jumpi\n        /* \"#utility.yul\":1454:1472   */\n      tag_121\n      tag_73\n      jump\t// in\n    tag_121:\n        /* \"#utility.yul\":1386:1474   */\n    tag_120:\n        /* \"#utility.yul\":1494:1504   */\n      dup1\n        /* \"#utility.yul\":1490:1492   */\n      0x40\n        /* \"#utility.yul\":1483:1505   */\n      mstore\n        /* \"#utility.yul\":1273:1511   */\n      pop\n        /* \"#utility.yul\":1230:1511   */\n      pop\n      pop\n      jump\t// out\n        /* \"#utility.yul\":1517:1646   */\n    tag_75:\n        /* \"#utility.yul\":1551:1557   */\n      0x00\n        /* \"#utility.yul\":1578:1598   */\n      tag_123\n      tag_64\n      jump\t// in\n    tag_123:\n        /* \"#utility.yul\":1568:1598   */\n      swap1\n      pop\n        /* \"#utility.yul\":1607:1640   */\n      tag_124\n        /* \"#utility.yul\":1635:1639   */\n      dup3\n        /* \"#utility.yul\":1627:1633   */\n      dup3\n        /* \"#utility.yul\":1607:1640   */\n      tag_74\n      jump\t// in\n    tag_124:\n        /* \"#utility.yul\":1517:1646   */\n      swap2\n      swap1\n      pop\n      jump\t// out\n        /* \"#utility.yul\":1652:1960   */\n    tag_76:\n        /* \"#utility.yul\":1714:1718   */\n      0x00\n        /* \"#utility.yul\":1804:1822   */\n      0xffffffffffffffff\n        /* \"#utility.yul\":1796:1802   */\n      dup3\n        /* \"#utility.yul\":1793:1823   */\n      gt\n        /* \"#utility.yul\":1790:1846   */\n      iszero\n      tag_126\n      jumpi\n        /* \"#utility.yul\":1826:1844   */\n      tag_127\n      tag_73\n      jump\t// in\n    tag_127:\n        /* \"#utility.yul\":1790:1846   */\n    tag_126:\n        /* \"#utility.yul\":1864:1893   */\n      tag_128\n        /* \"#utility.yul\":1886:1892   */\n      dup3\n        /* \"#utility.yul\":1864:1893   */\n      tag_72\n      jump\t// in\n    tag_128:\n        /* \"#utility.yul\":1856:1893   */\n      swap1\n      pop\n        /* \"#utility.yul\":1948:1952   */\n      0x20\n        /* \"#utility.yul\":1942:1946   */\n      dup2\n        /* \"#utility.yul\":1938:1953   */\n      add\n        /* \"#utility.yul\":1930:1953   */\n      swap1\n      pop\n        /* \"#utility.yul\":1652:1960   */\n      swap2\n      swap1\n      pop\n      jump\t// out\n        /* \"#utility.yul\":1966:2112   */\n    tag_77:\n        /* \"#utility.yul\":2063:2069   */\n      dup3\n        /* \"#utility.yul\":2058:2061   */\n      dup2\n        /* \"#utility.yul\":2053:2056   */\n      dup4\n        /* \"#utility.yul\":2040:2070   */\n      calldatacopy\n        /* \"#utility.yul\":2104:2105   */\n      0x00\n        /* \"#utility.yul\":2095:2101   */\n      dup4\n        /* \"#utility.yul\":2090:2093   */\n      dup4\n        /* \"#utility.yul\":2086:2102   */\n      add\n        /* \"#utility.yul\":2079:2106   */\n      mstore\n        /* \"#utility.yul\":1966:2112   */\n      pop\n      pop\n      pop\n      jump\t// out\n        /* \"#utility.yul\":2118:2543   */\n    tag_78:\n        /* \"#utility.yul\":2196:2201   */\n      0x00\n        /* \"#utility.yul\":2221:2287   */\n      tag_131\n        /* \"#utility.yul\":2237:2286   */\n      tag_132\n        /* \"#utility.yul\":2279:2285   */\n      dup5\n        /* \"#utility.yul\":2237:2286   */\n      tag_76\n      jump\t// in\n    tag_132:\n        /* \"#utility.yul\":2221:2287   */\n      tag_75\n      jump\t// in\n    tag_131:\n        /* \"#utility.yul\":2212:2287   */\n      swap1\n      pop\n        /* \"#utility.yul\":2310:2316   */\n      dup3\n        /* \"#utility.yul\":2303:2308   */\n      dup2\n        /* \"#utility.yul\":2296:2317   */\n      mstore\n        /* \"#utility.yul\":2348:2352   */\n      0x20\n        /* \"#utility.yul\":2341:2346   */\n      dup2\n        /* \"#utility.yul\":2337:2353   */\n      add\n        /* \"#utility.yul\":2386:2389   */\n      dup5\n        /* \"#utility.yul\":2377:2383   */\n      dup5\n        /* \"#utility.yul\":2372:2375   */\n      dup5\n        /* \"#utility.yul\":2368:2384   */\n      add\n        /* \"#utility.yul\":2365:2390   */\n      gt\n        /* \"#utility.yul\":2362:2474   */\n      iszero\n      tag_133\n      jumpi\n        /* \"#utility.yul\":2393:2472   */\n      tag_134\n      tag_71\n      jump\t// in\n    tag_134:\n        /* \"#utility.yul\":2362:2474   */\n    tag_133:\n        /* \"#utility.yul\":2483:2537   */\n      tag_135\n        /* \"#utility.yul\":2530:2536   */\n      dup5\n        /* \"#utility.yul\":2525:2528   */\n      dup3\n        /* \"#utility.yul\":2520:2523   */\n      dup6\n        /* \"#utility.yul\":2483:2537   */\n      tag_77\n      jump\t// in\n    tag_135:\n        /* \"#utility.yul\":2202:2543   */\n      pop\n        /* \"#utility.yul\":2118:2543   */\n      swap4\n      swap3\n      pop\n      pop\n      pop\n      jump\t// out\n        /* \"#utility.yul\":2563:2903   */\n    tag_79:\n        /* \"#utility.yul\":2619:2624   */\n      0x00\n        /* \"#utility.yul\":2668:2671   */\n      dup3\n        /* \"#utility.yul\":2661:2665   */\n      0x1f\n        /* \"#utility.yul\":2653:2659   */\n      dup4\n        /* \"#utility.yul\":2649:2666   */\n      add\n        /* \"#utility.yul\":2645:2672   */\n      slt\n        /* \"#utility.yul\":2635:2757   */\n      tag_137\n      jumpi\n        /* \"#utility.yul\":2676:2755   */\n      tag_138\n      tag_70\n      jump\t// in\n    tag_138:\n        /* \"#utility.yul\":2635:2757   */\n    tag_137:\n        /* \"#utility.yul\":2793:2799   */\n      dup2\n        /* \"#utility.yul\":2780:2800   */\n      calldataload\n        /* \"#utility.yul\":2818:2897   */\n      tag_139\n        /* \"#utility.yul\":2893:2896   */\n      dup5\n        /* \"#utility.yul\":2885:2891   */\n      dup3\n        /* \"#utility.yul\":2878:2882   */\n      0x20\n        /* \"#utility.yul\":2870:2876   */\n      dup7\n        /* \"#utility.yul\":2866:2883   */\n      add\n        /* \"#utility.yul\":2818:2897   */\n      tag_78\n      jump\t// in\n    tag_139:\n        /* \"#utility.yul\":2809:2897   */\n      swap2\n      pop\n        /* \"#utility.yul\":2625:2903   */\n      pop\n        /* \"#utility.yul\":2563:2903   */\n      swap3\n      swap2\n      pop\n      pop\n      jump\t// out\n        /* \"#utility.yul\":2909:3888   */\n    tag_10:\n        /* \"#utility.yul\":3006:3012   */\n      0x00\n        /* \"#utility.yul\":3014:3020   */\n      dup1\n        /* \"#utility.yul\":3022:3028   */\n      0x00\n        /* \"#utility.yul\":3071:3073   */\n      0x60\n        /* \"#utility.yul\":3059:3068   */\n      dup5\n        /* \"#utility.yul\":3050:3057   */\n      dup7\n        /* \"#utility.yul\":3046:3069   */\n      sub\n        /* \"#utility.yul\":3042:3074   */\n      slt\n        /* \"#utility.yul\":3039:3158   */\n      iszero\n      tag_141\n      jumpi\n        /* \"#utility.yul\":3077:3156   */\n      tag_142\n      tag_65\n      jump\t// in\n    tag_142:\n        /* \"#utility.yul\":3039:3158   */\n    tag_141:\n        /* \"#utility.yul\":3197:3198   */\n      0x00\n        /* \"#utility.yul\":3222:3275   */\n      tag_143\n        /* \"#utility.yul\":3267:3274   */\n      dup7\n        /* \"#utility.yul\":3258:3264   */\n      dup3\n        /* \"#utility.yul\":3247:3256   */\n      dup8\n        /* \"#utility.yul\":3243:3265   */\n      add\n        /* \"#utility.yul\":3222:3275   */\n      tag_69\n      jump\t// in\n    tag_143:\n        /* \"#utility.yul\":3212:3275   */\n      swap4\n      pop\n        /* \"#utility.yul\":3168:3285   */\n      pop\n        /* \"#utility.yul\":3352:3354   */\n      0x20\n        /* \"#utility.yul\":3341:3350   */\n      dup5\n        /* \"#utility.yul\":3337:3355   */\n      add\n        /* \"#utility.yul\":3324:3356   */\n      calldataload\n        /* \"#utility.yul\":3383:3401   */\n      0xffffffffffffffff\n        /* \"#utility.yul\":3375:3381   */\n      dup2\n        /* \"#utility.yul\":3372:3402   */\n      gt\n        /* \"#utility.yul\":3369:3486   */\n      iszero\n      tag_144\n      jumpi\n        /* \"#utility.yul\":3405:3484   */\n      tag_145\n      tag_66\n      jump\t// in\n    tag_145:\n        /* \"#utility.yul\":3369:3486   */\n    tag_144:\n        /* \"#utility.yul\":3510:3573   */\n      tag_146\n        /* \"#utility.yul\":3565:3572   */\n      dup7\n        /* \"#utility.yul\":3556:3562   */\n      dup3\n        /* \"#utility.yul\":3545:3554   */\n      dup8\n        /* \"#utility.yul\":3541:3563   */\n      add\n        /* \"#utility.yul\":3510:3573   */\n      tag_79\n      jump\t// in\n    tag_146:\n        /* \"#utility.yul\":3500:3573   */\n      swap3\n      pop\n        /* \"#utility.yul\":3295:3583   */\n      pop\n        /* \"#utility.yul\":3650:3652   */\n      0x40\n        /* \"#utility.yul\":3639:3648   */\n      dup5\n        /* \"#utility.yul\":3635:3653   */\n      add\n        /* \"#utility.yul\":3622:3654   */\n      calldataload\n        /* \"#utility.yul\":3681:3699   */\n      0xffffffffffffffff\n        /* \"#utility.yul\":3673:3679   */\n      dup2\n        /* \"#utility.yul\":3670:3700   */\n      gt\n        /* \"#utility.yul\":3667:3784   */\n      iszero\n      tag_147\n      jumpi\n        /* \"#utility.yul\":3703:3782   */\n      tag_148\n      tag_66\n      jump\t// in\n    tag_148:\n        /* \"#utility.yul\":3667:3784   */\n    tag_147:\n        /* \"#utility.yul\":3808:3871   */\n      tag_149\n        /* \"#utility.yul\":3863:3870   */\n      dup7\n        /* \"#utility.yul\":3854:3860   */\n      dup3\n        /* \"#utility.yul\":3843:3852   */\n      dup8\n        /* \"#utility.yul\":3839:3861   */\n      add\n        /* \"#utility.yul\":3808:3871   */\n      tag_79\n      jump\t// in\n    tag_149:\n        /* \"#utility.yul\":3798:3871   */\n      swap2\n      pop\n        /* \"#utility.yul\":3593:3881   */\n      pop\n        /* \"#utility.yul\":2909:3888   */\n      swap3\n      pop\n      swap3\n      pop\n      swap3\n      jump\t// out\n        /* \"#utility.yul\":3894:4020   */\n    tag_80:\n        /* \"#utility.yul\":3931:3938   */\n      0x00\n        /* \"#utility.yul\":3971:4013   */\n      0xffffffffffffffffffffffffffffffffffffffff\n        /* \"#utility.yul\":3964:3969   */\n      dup3\n        /* \"#utility.yul\":3960:4014   */\n      and\n        /* \"#utility.yul\":3949:4014   */\n      swap1\n      pop\n        /* \"#utility.yul\":3894:4020   */\n      swap2\n      swap1\n      pop\n      jump\t// out\n        /* \"#utility.yul\":4026:4122   */\n    tag_81:\n        /* \"#utility.yul\":4063:4070   */\n      0x00\n        /* \"#utility.yul\":4092:4116   */\n      tag_152\n        /* \"#utility.yul\":4110:4115   */\n      dup3\n        /* \"#utility.yul\":4092:4116   */\n      tag_80\n      jump\t// in\n    tag_152:\n        /* \"#utility.yul\":4081:4116   */\n      swap1\n      pop\n        /* \"#utility.yul\":4026:4122   */\n      swap2\n      swap1\n      pop\n      jump\t// out\n        /* \"#utility.yul\":4128:4250   */\n    tag_82:\n        /* \"#utility.yul\":4201:4225   */\n      tag_154\n        /* \"#utility.yul\":4219:4224   */\n      dup2\n        /* \"#utility.yul\":4201:4225   */\n      tag_81\n      jump\t// in\n    tag_154:\n        /* \"#utility.yul\":4194:4199   */\n      dup2\n        /* \"#utility.yul\":4191:4226   */\n      eq\n        /* \"#utility.yul\":4181:4244   */\n      tag_155\n      jumpi\n        /* \"#utility.yul\":4240:4241   */\n      0x00\n        /* \"#utility.yul\":4237:4238   */\n      dup1\n        /* \"#utility.yul\":4230:4242   */\n      revert\n        /* \"#utility.yul\":4181:4244   */\n    tag_155:\n        /* \"#utility.yul\":4128:4250   */\n      pop\n      jump\t// out\n        /* \"#utility.yul\":4256:4395   */\n    tag_83:\n        /* \"#utility.yul\":4302:4307   */\n      0x00\n        /* \"#utility.yul\":4340:4346   */\n      dup2\n        /* \"#utility.yul\":4327:4347   */\n      calldataload\n        /* \"#utility.yul\":4318:4347   */\n      swap1\n      pop\n        /* \"#utility.yul\":4356:4389   */\n      tag_157\n        /* \"#utility.yul\":4383:4388   */\n      dup2\n        /* \"#utility.yul\":4356:4389   */\n      tag_82\n      jump\t// in\n    tag_157:\n        /* \"#utility.yul\":4256:4395   */\n      swap3\n      swap2\n      pop\n      pop\n      jump\t// out\n        /* \"#utility.yul\":4401:4875   */\n    tag_14:\n        /* \"#utility.yul\":4469:4475   */\n      0x00\n        /* \"#utility.yul\":4477:4483   */\n      dup1\n        /* \"#utility.yul\":4526:4528   */\n      0x40\n        /* \"#utility.yul\":4514:4523   */\n      dup4\n        /* \"#utility.yul\":4505:4512   */\n      dup6\n        /* \"#utility.yul\":4501:4524   */\n      sub\n        /* \"#utility.yul\":4497:4529   */\n      slt\n        /* \"#utility.yul\":4494:4613   */\n      iszero\n      tag_159\n      jumpi\n        /* \"#utility.yul\":4532:4611   */\n      tag_160\n      tag_65\n      jump\t// in\n    tag_160:\n        /* \"#utility.yul\":4494:4613   */\n    tag_159:\n        /* \"#utility.yul\":4652:4653   */\n      0x00\n        /* \"#utility.yul\":4677:4730   */\n      tag_161\n        /* \"#utility.yul\":4722:4729   */\n      dup6\n        /* \"#utility.yul\":4713:4719   */\n      dup3\n        /* \"#utility.yul\":4702:4711   */\n      dup7\n        /* \"#utility.yul\":4698:4720   */\n      add\n        /* \"#utility.yul\":4677:4730   */\n      tag_83\n      jump\t// in\n    tag_161:\n        /* \"#utility.yul\":4667:4730   */\n      swap3\n      pop\n        /* \"#utility.yul\":4623:4740   */\n      pop\n        /* \"#utility.yul\":4779:4781   */\n      0x20\n        /* \"#utility.yul\":4805:4858   */\n      tag_162\n        /* \"#utility.yul\":4850:4857   */\n      dup6\n        /* \"#utility.yul\":4841:4847   */\n      dup3\n        /* \"#utility.yul\":4830:4839   */\n      dup7\n        /* \"#utility.yul\":4826:4848   */\n      add\n        /* \"#utility.yul\":4805:4858   */\n      tag_69\n      jump\t// in\n    tag_162:\n        /* \"#utility.yul\":4795:4858   */\n      swap2\n      pop\n        /* \"#utility.yul\":4750:4868   */\n      pop\n        /* \"#utility.yul\":4401:4875   */\n      swap3\n      pop\n      swap3\n      swap1\n      pop\n      jump\t// out\n        /* \"#utility.yul\":4881:4980   */\n    tag_84:\n        /* \"#utility.yul\":4933:4939   */\n      0x00\n        /* \"#utility.yul\":4967:4972   */\n      dup2\n        /* \"#utility.yul\":4961:4973   */\n      mload\n        /* \"#utility.yul\":4951:4973   */\n      swap1\n      pop\n        /* \"#utility.yul\":4881:4980   */\n      swap2\n      swap1\n      pop\n      jump\t// out\n        /* \"#utility.yul\":4986:5155   */\n    tag_85:\n        /* \"#utility.yul\":5070:5081   */\n      0x00\n        /* \"#utility.yul\":5104:5110   */\n      dup3\n        /* \"#utility.yul\":5099:5102   */\n      dup3\n        /* \"#utility.yul\":5092:5111   */\n      mstore\n        /* \"#utility.yul\":5144:5148   */\n      0x20\n        /* \"#utility.yul\":5139:5142   */\n      dup3\n        /* \"#utility.yul\":5135:5149   */\n      add\n        /* \"#utility.yul\":5120:5149   */\n      swap1\n      pop\n        /* \"#utility.yul\":4986:5155   */\n      swap3\n      swap2\n      pop\n      pop\n      jump\t// out\n        /* \"#utility.yul\":5161:5407   */\n    tag_86:\n        /* \"#utility.yul\":5242:5243   */\n      0x00\n        /* \"#utility.yul\":5252:5365   */\n    tag_166:\n        /* \"#utility.yul\":5266:5272   */\n      dup4\n        /* \"#utility.yul\":5263:5264   */\n      dup2\n        /* \"#utility.yul\":5260:5273   */\n      lt\n        /* \"#utility.yul\":5252:5365   */\n      iszero\n      tag_168\n      jumpi\n        /* \"#utility.yul\":5351:5352   */\n      dup1\n        /* \"#utility.yul\":5346:5349   */\n      dup3\n        /* \"#utility.yul\":5342:5353   */\n      add\n        /* \"#utility.yul\":5336:5354   */\n      mload\n        /* \"#utility.yul\":5332:5333   */\n      dup2\n        /* \"#utility.yul\":5327:5330   */\n      dup5\n        /* \"#utility.yul\":5323:5334   */\n      add\n        /* \"#utility.yul\":5316:5355   */\n      mstore\n        /* \"#utility.yul\":5288:5290   */\n      0x20\n        /* \"#utility.yul\":5285:5286   */\n      dup2\n        /* \"#utility.yul\":5281:5291   */\n      add\n        /* \"#utility.yul\":5276:5291   */\n      swap1\n      pop\n        /* \"#utility.yul\":5252:5365   */\n      jump(tag_166)\n    tag_168:\n        /* \"#utility.yul\":5399:5400   */\n      0x00\n        /* \"#utility.yul\":5390:5396   */\n      dup5\n        /* \"#utility.yul\":5385:5388   */\n      dup5\n        /* \"#utility.yul\":5381:5397   */\n      add\n        /* \"#utility.yul\":5374:5401   */\n      mstore\n        /* \"#utility.yul\":5223:5407   */\n      pop\n        /* \"#utility.yul\":5161:5407   */\n      pop\n      pop\n      pop\n      jump\t// out\n        /* \"#utility.yul\":5413:5790   */\n    tag_87:\n        /* \"#utility.yul\":5501:5504   */\n      0x00\n        /* \"#utility.yul\":5529:5568   */\n      tag_170\n        /* \"#utility.yul\":5562:5567   */\n      dup3\n        /* \"#utility.yul\":5529:5568   */\n      tag_84\n      jump\t// in\n    tag_170:\n        /* \"#utility.yul\":5584:5655   */\n      tag_171\n        /* \"#utility.yul\":5648:5654   */\n      dup2\n        /* \"#utility.yul\":5643:5646   */\n      dup6\n        /* \"#utility.yul\":5584:5655   */\n      tag_85\n      jump\t// in\n    tag_171:\n        /* \"#utility.yul\":5577:5655   */\n      swap4\n      pop\n        /* \"#utility.yul\":5664:5729   */\n      tag_172\n        /* \"#utility.yul\":5722:5728   */\n      dup2\n        /* \"#utility.yul\":5717:5720   */\n      dup6\n        /* \"#utility.yul\":5710:5714   */\n      0x20\n        /* \"#utility.yul\":5703:5708   */\n      dup7\n        /* \"#utility.yul\":5699:5715   */\n      add\n        /* \"#utility.yul\":5664:5729   */\n      tag_86\n      jump\t// in\n    tag_172:\n        /* \"#utility.yul\":5754:5783   */\n      tag_173\n        /* \"#utility.yul\":5776:5782   */\n      dup2\n        /* \"#utility.yul\":5754:5783   */\n      tag_72\n      jump\t// in\n    tag_173:\n        /* \"#utility.yul\":5749:5752   */\n      dup5\n        /* \"#utility.yul\":5745:5784   */\n      add\n        /* \"#utility.yul\":5738:5784   */\n      swap2\n      pop\n        /* \"#utility.yul\":5505:5790   */\n      pop\n        /* \"#utility.yul\":5413:5790   */\n      swap3\n      swap2\n      pop\n      pop\n      jump\t// out\n        /* \"#utility.yul\":5796:6310   */\n    tag_17:\n        /* \"#utility.yul\":5957:5961   */\n      0x00\n        /* \"#utility.yul\":5995:5997   */\n      0x40\n        /* \"#utility.yul\":5984:5993   */\n      dup3\n        /* \"#utility.yul\":5980:5998   */\n      add\n        /* \"#utility.yul\":5972:5998   */\n      swap1\n      pop\n        /* \"#utility.yul\":6044:6053   */\n      dup2\n        /* \"#utility.yul\":6038:6042   */\n      dup2\n        /* \"#utility.yul\":6034:6054   */\n      sub\n        /* \"#utility.yul\":6030:6031   */\n      0x00\n        /* \"#utility.yul\":6019:6028   */\n      dup4\n        /* \"#utility.yul\":6015:6032   */\n      add\n        /* \"#utility.yul\":6008:6055   */\n      mstore\n        /* \"#utility.yul\":6072:6150   */\n      tag_175\n        /* \"#utility.yul\":6145:6149   */\n      dup2\n        /* \"#utility.yul\":6136:6142   */\n      dup6\n        /* \"#utility.yul\":6072:6150   */\n      tag_87\n      jump\t// in\n    tag_175:\n        /* \"#utility.yul\":6064:6150   */\n      swap1\n      pop\n        /* \"#utility.yul\":6197:6206   */\n      dup2\n        /* \"#utility.yul\":6191:6195   */\n      dup2\n        /* \"#utility.yul\":6187:6207   */\n      sub\n        /* \"#utility.yul\":6182:6184   */\n      0x20\n        /* \"#utility.yul\":6171:6180   */\n      dup4\n        /* \"#utility.yul\":6167:6185   */\n      add\n        /* \"#utility.yul\":6160:6208   */\n      mstore\n        /* \"#utility.yul\":6225:6303   */\n      tag_176\n        /* \"#utility.yul\":6298:6302   */\n      dup2\n        /* \"#utility.yul\":6289:6295   */\n      dup5\n        /* \"#utility.yul\":6225:6303   */\n      tag_87\n      jump\t// in\n    tag_176:\n        /* \"#utility.yul\":6217:6303   */\n      swap1\n      pop\n        /* \"#utility.yul\":5796:6310   */\n      swap4\n      swap3\n      pop\n      pop\n      pop\n      jump\t// out\n        /* \"#utility.yul\":6316:6645   */\n    tag_20:\n        /* \"#utility.yul\":6375:6381   */\n      0x00\n        /* \"#utility.yul\":6424:6426   */\n      0x20\n        /* \"#utility.yul\":6412:6421   */\n      dup3\n        /* \"#utility.yul\":6403:6410   */\n      dup5\n        /* \"#utility.yul\":6399:6422   */\n      sub\n        /* \"#utility.yul\":6395:6427   */\n      slt\n        /* \"#utility.yul\":6392:6511   */\n      iszero\n      tag_178\n      jumpi\n        /* \"#utility.yul\":6430:6509   */\n      tag_179\n      tag_65\n      jump\t// in\n    tag_179:\n        /* \"#utility.yul\":6392:6511   */\n    tag_178:\n        /* \"#utility.yul\":6550:6551   */\n      0x00\n        /* \"#utility.yul\":6575:6628   */\n      tag_180\n        /* \"#utility.yul\":6620:6627   */\n      dup5\n        /* \"#utility.yul\":6611:6617   */\n      dup3\n        /* \"#utility.yul\":6600:6609   */\n      dup6\n        /* \"#utility.yul\":6596:6618   */\n      add\n        /* \"#utility.yul\":6575:6628   */\n      tag_69\n      jump\t// in\n    tag_180:\n        /* \"#utility.yul\":6565:6628   */\n      swap2\n      pop\n        /* \"#utility.yul\":6521:6638   */\n      pop\n        /* \"#utility.yul\":6316:6645   */\n      swap3\n      swap2\n      pop\n      pop\n      jump\t// out\n        /* \"#utility.yul\":6651:6964   */\n    tag_23:\n        /* \"#utility.yul\":6764:6768   */\n      0x00\n        /* \"#utility.yul\":6802:6804   */\n      0x20\n        /* \"#utility.yul\":6791:6800   */\n      dup3\n        /* \"#utility.yul\":6787:6805   */\n      add\n        /* \"#utility.yul\":6779:6805   */\n      swap1\n      pop\n        /* \"#utility.yul\":6851:6860   */\n      dup2\n        /* \"#utility.yul\":6845:6849   */\n      dup2\n        /* \"#utility.yul\":6841:6861   */\n      sub\n        /* \"#utility.yul\":6837:6838   */\n      0x00\n        /* \"#utility.yul\":6826:6835   */\n      dup4\n        /* \"#utility.yul\":6822:6839   */\n      add\n        /* \"#utility.yul\":6815:6862   */\n      mstore\n        /* \"#utility.yul\":6879:6957   */\n      tag_182\n        /* \"#utility.yul\":6952:6956   */\n      dup2\n        /* \"#utility.yul\":6943:6949   */\n      dup5\n        /* \"#utility.yul\":6879:6957   */\n      tag_87\n      jump\t// in\n    tag_182:\n        /* \"#utility.yul\":6871:6957   */\n      swap1\n      pop\n        /* \"#utility.yul\":6651:6964   */\n      swap3\n      swap2\n      pop\n      pop\n      jump\t// out\n        /* \"#utility.yul\":6970:7150   */\n    tag_88:\n        /* \"#utility.yul\":7018:7095   */\n      0x4e487b7100000000000000000000000000000000000000000000000000000000\n        /* \"#utility.yul\":7015:7016   */\n      0x00\n        /* \"#utility.yul\":7008:7096   */\n      mstore\n        /* \"#utility.yul\":7115:7119   */\n      0x22\n        /* \"#utility.yul\":7112:7113   */\n      0x04\n        /* \"#utility.yul\":7105:7120   */\n      mstore\n        /* \"#utility.yul\":7139:7143   */\n      0x24\n        /* \"#utility.yul\":7136:7137   */\n      0x00\n        /* \"#utility.yul\":7129:7144   */\n      revert\n        /* \"#utility.yul\":7156:7476   */\n    tag_36:\n        /* \"#utility.yul\":7200:7206   */\n      0x00\n        /* \"#utility.yul\":7237:7238   */\n      0x02\n        /* \"#utility.yul\":7231:7235   */\n      dup3\n        /* \"#utility.yul\":7227:7239   */\n      div\n        /* \"#utility.yul\":7217:7239   */\n      swap1\n      pop\n        /* \"#utility.yul\":7284:7285   */\n      0x01\n        /* \"#utility.yul\":7278:7282   */\n      dup3\n        /* \"#utility.yul\":7274:7286   */\n      and\n        /* \"#utility.yul\":7305:7323   */\n      dup1\n        /* \"#utility.yul\":7295:7376   */\n      tag_185\n      jumpi\n        /* \"#utility.yul\":7361:7365   */\n      0x7f\n        /* \"#utility.yul\":7353:7359   */\n      dup3\n        /* \"#utility.yul\":7349:7366   */\n      and\n        /* \"#utility.yul\":7339:7366   */\n      swap2\n      pop\n        /* \"#utility.yul\":7295:7376   */\n    tag_185:\n        /* \"#utility.yul\":7423:7425   */\n      0x20\n        /* \"#utility.yul\":7415:7421   */\n      dup3\n        /* \"#utility.yul\":7412:7426   */\n      lt\n        /* \"#utility.yul\":7392:7410   */\n      dup2\n        /* \"#utility.yul\":7389:7427   */\n      sub\n        /* \"#utility.yul\":7386:7470   */\n      tag_186\n      jumpi\n        /* \"#utility.yul\":7442:7460   */\n      tag_187\n      tag_88\n      jump\t// in\n    tag_187:\n        /* \"#utility.yul\":7386:7470   */\n    tag_186:\n        /* \"#utility.yul\":7207:7476   */\n      pop\n        /* \"#utility.yul\":7156:7476   */\n      swap2\n      swap1\n      pop\n      jump\t// out\n        /* \"#utility.yul\":7482:7623   */\n    tag_89:\n        /* \"#utility.yul\":7531:7535   */\n      0x00\n        /* \"#utility.yul\":7554:7557   */\n      dup2\n        /* \"#utility.yul\":7546:7557   */\n      swap1\n      pop\n        /* \"#utility.yul\":7577:7580   */\n      dup2\n        /* \"#utility.yul\":7574:7575   */\n      0x00\n        /* \"#utility.yul\":7567:7581   */\n      mstore\n        /* \"#utility.yul\":7611:7615   */\n      0x20\n        /* \"#utility.yul\":7608:7609   */\n      0x00\n        /* \"#utility.yul\":7598:7616   */\n      keccak256\n        /* \"#utility.yul\":7590:7616   */\n      swap1\n      pop\n        /* \"#utility.yul\":7482:7623   */\n      swap2\n      swap1\n      pop\n      jump\t// out\n        /* \"#utility.yul\":7629:7722   */\n    tag_90:\n        /* \"#utility.yul\":7666:7672   */\n      0x00\n        /* \"#utility.yul\":7713:7715   */\n      0x20\n        /* \"#utility.yul\":7708:7710   */\n      0x1f\n        /* \"#utility.yul\":7701:7706   */\n      dup4\n        /* \"#utility.yul\":7697:7711   */\n      add\n        /* \"#utility.yul\":7693:7716   */\n      div\n        /* \"#utility.yul\":7683:7716   */\n      swap1\n      pop\n        /* \"#utility.yul\":7629:7722   */\n      swap2\n      swap1\n      pop\n      jump\t// out\n        /* \"#utility.yul\":7728:7835   */\n    tag_91:\n        /* \"#utility.yul\":7772:7780   */\n      0x00\n        /* \"#utility.yul\":7822:7827   */\n      dup3\n        /* \"#utility.yul\":7816:7820   */\n      dup3\n        /* \"#utility.yul\":7812:7828   */\n      shl\n        /* \"#utility.yul\":7791:7828   */\n      swap1\n      pop\n        /* \"#utility.yul\":7728:7835   */\n      swap3\n      swap2\n      pop\n      pop\n      jump\t// out\n        /* \"#utility.yul\":7841:8234   */\n    tag_92:\n        /* \"#utility.yul\":7910:7916   */\n      0x00\n        /* \"#utility.yul\":7960:7961   */\n      0x08\n        /* \"#utility.yul\":7948:7958   */\n      dup4\n        /* \"#utility.yul\":7944:7962   */\n      mul\n        /* \"#utility.yul\":7983:8080   */\n      tag_192\n        /* \"#utility.yul\":8013:8079   */\n      0xffffffffffffffffffffffffffffffffffffffffffffffffffffffffffffffff\n        /* \"#utility.yul\":8002:8011   */\n      dup3\n        /* \"#utility.yul\":7983:8080   */\n      tag_91\n      jump\t// in\n    tag_192:\n        /* \"#utility.yul\":8101:8140   */\n      tag_193\n        /* \"#utility.yul\":8131:8139   */\n      dup7\n        /* \"#utility.yul\":8120:8129   */\n      dup4\n        /* \"#utility.yul\":8101:8140   */\n      tag_91\n      jump\t// in\n    tag_193:\n        /* \"#utility.yul\":8089:8140   */\n      swap6\n      pop\n        /* \"#utility.yul\":8173:8177   */\n      dup1\n        /* \"#utility.yul\":8169:8178   */\n      not\n        /* \"#utility.yul\":8162:8167   */\n      dup5\n        /* \"#utility.yul\":8158:8179   */\n      and\n        /* \"#utility.yul\":8149:8179   */\n      swap4\n      pop\n        /* \"#utility.yul\":8222:8226   */\n      dup1\n        /* \"#utility.yul\":8212:8220   */\n      dup7\n        /* \"#utility.yul\":8208:8227   */\n      and\n        /* \"#utility.yul\":8201:8206   */\n      dup5\n        /* \"#utility.yul\":8198:8228   */\n      or\n        /* \"#utility.yul\":8188:8228   */\n      swap3\n      pop\n        /* \"#utility.yul\":7917:8234   */\n      pop\n      pop\n        /* \"#utility.yul\":7841:8234   */\n      swap4\n      swap3\n      pop\n      pop\n      pop\n      jump\t// out\n        /* \"#utility.yul\":8240:8300   */\n    tag_93:\n        /* \"#utility.yul\":8268:8271   */\n      0x00\n        /* \"#utility.yul\":8289:8294   */\n      dup2\n        /* \"#utility.yul\":8282:8294   */\n      swap1\n      pop\n        /* \"#utility.yul\":8240:8300   */\n      swap2\n      swap1\n      pop\n      jump\t// out\n        /* \"#utility.yul\":8306:8448   */\n    tag_94:\n        /* \"#utility.yul\":8356:8365   */\n      0x00\n        /* \"#utility.yul\":8389:8442   */\n      tag_196\n        /* \"#utility.yul\":8407:8441   */\n      tag_197\n        /* \"#utility.yul\":8416:8440   */\n      tag_198\n        /* \"#utility.yul\":8434:8439   */\n      dup5\n        /* \"#utility.yul\":8416:8440   */\n      tag_67\n      jump\t// in\n    tag_198:\n        /* \"#utility.yul\":8407:8441   */\n      tag_93\n      jump\t// in\n    tag_197:\n        /* \"#utility.yul\":8389:8442   */\n      tag_67\n      jump\t// in\n    tag_196:\n        /* \"#utility.yul\":8376:8442   */\n      swap1\n      pop\n        /* \"#utility.yul\":8306:8448   */\n      swap2\n      swap1\n      pop\n      jump\t// out\n        /* \"#utility.yul\":8454:8529   */\n    tag_95:\n        /* \"#utility.yul\":8497:8500   */\n      0x00\n        /* \"#utility.yul\":8518:8523   */\n      dup2\n        /* \"#utility.yul\":8511:8523   */\n      swap1\n      pop\n        /* \"#utility.yul\":8454:8529   */\n      swap2\n      swap1\n      pop\n      jump\t// out\n        /* \"#utility.yul\":8535:8804   */\n    tag_96:\n        /* \"#utility.yul\":8645:8684   */\n      tag_201\n        /* \"#utility.yul\":8676:8683   */\n      dup4\n        /* \"#utility.yul\":8645:8684   */\n      tag_94\n      jump\t// in\n    tag_201:\n        /* \"#utility.yul\":8706:8797   */\n      tag_202\n        /* \"#utility.yul\":8755:8796   */\n      tag_203\n        /* \"#utility.yul\":8779:8795   */\n      dup3\n        /* \"#utility.yul\":8755:8796   */\n      tag_95\n      jump\t// in\n    tag_203:\n        /* \"#utility.yul\":8747:8753   */\n      dup5\n        /* \"#utility.yul\":8740:8744   */\n      dup5\n        /* \"#utility.yul\":8734:8745   */\n      sload\n        /* \"#utility.yul\":8706:8797   */\n      tag_92\n      jump\t// in\n    tag_202:\n        /* \"#utility.yul\":8700:8704   */\n      dup3\n        /* \"#utility.yul\":8693:8798   */\n      sstore\n        /* \"#utility.yul\":8611:8804   */\n      pop\n        /* \"#utility.yul\":8535:8804   */\n      pop\n      pop\n      pop\n      jump\t// out\n        /* \"#utility.yul\":8810:8883   */\n    tag_97:\n        /* \"#utility.yul\":8855:8858   */\n      0x00\n        /* \"#utility.yul\":8810:8883   */\n      swap1\n      jump\t// out\n        /* \"#utility.yul\":8889:9078   */\n    tag_98:\n        /* \"#utility.yul\":8966:8998   */\n      tag_206\n      tag_97\n      jump\t// in\n    tag_206:\n        /* \"#utility.yul\":9007:9072   */\n      tag_207\n        /* \"#utility.yul\":9065:9071   */\n      dup2\n        /* \"#utility.yul\":9057:9063   */\n      dup5\n        /* \"#utility.yul\":9051:9055   */\n      dup5\n        /* \"#utility.yul\":9007:9072   */\n      tag_96\n      jump\t// in\n    tag_207:\n        /* \"#utility.yul\":8942:9078   */\n      pop\n        /* \"#utility.yul\":8889:9078   */\n      pop\n      pop\n      jump\t// out\n        /* \"#utility.yul\":9084:9270   */\n    tag_99:\n        /* \"#utility.yul\":9144:9264   */\n    tag_209:\n        /* \"#utility.yul\":9161:9164   */\n      dup2\n        /* \"#utility.yul\":9154:9159   */\n      dup2\n        /* \"#utility.yul\":9151:9165   */\n      lt\n        /* \"#utility.yul\":9144:9264   */\n      iszero\n      tag_211\n      jumpi\n        /* \"#utility.yul\":9215:9254   */\n      tag_212\n        /* \"#utility.yul\":9252:9253   */\n      0x00\n        /* \"#utility.yul\":9245:9250   */\n      dup3\n        /* \"#utility.yul\":9215:9254   */\n      tag_98\n      jump\t// in\n    tag_212:\n        /* \"#utility.yul\":9188:9189   */\n      0x01\n        /* \"#utility.yul\":9181:9186   */\n      dup2\n        /* \"#utility.yul\":9177:9190   */\n      add\n        /* \"#utility.yul\":9168:9190   */\n      swap1\n      pop\n        /* \"#utility.yul\":9144:9264   */\n      jump(tag_209)\n    tag_211:\n        /* \"#utility.yul\":9084:9270   */\n      pop\n      pop\n      jump\t// out\n        /* \"#utility.yul\":9276:9819   */\n    tag_100:\n        /* \"#utility.yul\":9377:9379   */\n      0x1f\n        /* \"#utility.yul\":9372:9375   */\n      dup3\n        /* \"#utility.yul\":9369:9380   */\n      gt\n        /* \"#utility.yul\":9366:9812   */\n      iszero\n      tag_214\n      jumpi\n        /* \"#utility.yul\":9411:9449   */\n      tag_215\n        /* \"#utility.yul\":9443:9448   */\n      dup2\n        /* \"#utility.yul\":9411:9449   */\n      tag_89\n      jump\t// in\n    tag_215:\n        /* \"#utility.yul\":9495:9524   */\n      tag_216\n        /* \"#utility.yul\":9513:9523   */\n      dup5\n        /* \"#utility.yul\":9495:9524   */\n      tag_90\n      jump\t// in\n    tag_216:\n        /* \"#utility.yul\":9485:9493   */\n      dup2\n        /* \"#utility.yul\":9481:9525   */\n      add\n        /* \"#utility.yul\":9678:9680   */\n      0x20\n        /* \"#utility.yul\":9666:9676   */\n      dup6\n        /* \"#utility.yul\":9663:9681   */\n      lt\n        /* \"#utility.yul\":9660:9709   */\n      iszero\n      tag_217\n      jumpi\n        /* \"#utility.yul\":9699:9707   */\n      dup2\n        /* \"#utility.yul\":9684:9707   */\n      swap1\n      pop\n        /* \"#utility.yul\":9660:9709   */\n    tag_217:\n        /* \"#utility.yul\":9722:9802   */\n      tag_218\n        /* \"#utility.yul\":9778:9800   */\n      tag_219\n        /* \"#utility.yul\":9796:9799   */\n      dup6\n        /* \"#utility.yul\":9778:9800   */\n      tag_90\n      jump\t// in\n    tag_219:\n        /* \"#utility.yul\":9768:9776   */\n      dup4\n        /* \"#utility.yul\":9764:9801   */\n      add\n        /* \"#utility.yul\":9751:9762   */\n      dup3\n        /* \"#utility.yul\":9722:9802   */\n      tag_99\n      jump\t// in\n    tag_218:\n        /* \"#utility.yul\":9381:9812   */\n      pop\n      pop\n        /* \"#utility.yul\":9366:9812   */\n    tag_214:\n        /* \"#utility.yul\":9276:9819   */\n      pop\n      pop\n      pop\n      jump\t// out\n        /* \"#utility.yul\":9825:9942   */\n    tag_101:\n        /* \"#utility.yul\":9879:9887   */\n      0x00\n        /* \"#utility.yul\":9929:9934   */\n      dup3\n        /* \"#utility.yul\":9923:9927   */\n      dup3\n        /* \"#utility.yul\":9919:9935   */\n      shr\n        /* \"#utility.yul\":9898:9935   */\n      swap1\n      pop\n        /* \"#utility.yul\":9825:9942   */\n      swap3\n      swap2\n      pop\n      pop\n      jump\t// out\n        /* \"#utility.yul\":9948:10117   */\n    tag_102:\n        /* \"#utility.yul\":9992:9998   */\n      0x00\n        /* \"#utility.yul\":10025:10076   */\n      tag_222\n        /* \"#utility.yul\":10073:10074   */\n      0x00\n        /* \"#utility.yul\":10069:10075   */\n      not\n        /* \"#utility.yul\":10061:10066   */\n      dup5\n        /* \"#utility.yul\":10058:10059   */\n      0x08\n        /* \"#utility.yul\":10054:10067   */\n      mul\n        /* \"#utility.yul\":10025:10076   */\n      tag_101\n      jump\t// in\n    tag_222:\n        /* \"#utility.yul\":10021:10077   */\n      not\n        /* \"#utility.yul\":10106:10110   */\n      dup1\n        /* \"#utility.yul\":10100:10104   */\n      dup4\n        /* \"#utility.yul\":10096:10111   */\n      and\n        /* \"#utility.yul\":10086:10111   */\n      swap2\n      pop\n        /* \"#utility.yul\":9999:10117   */\n      pop\n        /* \"#utility.yul\":9948:10117   */\n      swap3\n      swap2\n      pop\n      pop\n      jump\t// out\n        /* \"#utility.yul\":10122:10417   */\n    tag_103:\n        /* \"#utility.yul\":10198:10202   */\n      0x00\n        /* \"#utility.yul\":10344:10373   */\n      tag_224\n        /* \"#utility.yul\":10369:10372   */\n      dup4\n        /* \"#utility.yul\":10363:10367   */\n      dup4\n        /* \"#utility.yul\":10344:10373   */\n      tag_102\n      jump\t// in\n    tag_224:\n        /* \"#utility.yul\":10336:10373   */\n      swap2\n      pop\n        /* \"#utility.yul\":10406:10409   */\n      dup3\n        /* \"#utility.yul\":10403:10404   */\n      0x02\n        /* \"#utility.yul\":10399:10410   */\n      mul\n        /* \"#utility.yul\":10393:10397   */\n      dup3\n        /* \"#utility.yul\":10390:10411   */\n      or\n        /* \"#utility.yul\":10382:10411   */\n      swap1\n      pop\n        /* \"#utility.yul\":10122:10417   */\n      swap3\n      swap2\n      pop\n      pop\n      jump\t// out\n        /* \"#utility.yul\":10422:11817   */\n    tag_33:\n        /* \"#utility.yul\":10539:10576   */\n      tag_226\n        /* \"#utility.yul\":10572:10575   */\n      dup3\n        /* \"#utility.yul\":10539:10576   */\n      tag_84\n      jump\t// in\n    tag_226:\n        /* \"#utility.yul\":10641:10659   */\n      0xffffffffffffffff\n        /* \"#utility.yul\":10633:10639   */\n      dup2\n        /* \"#utility.yul\":10630:10660   */\n      gt\n        /* \"#utility.yul\":10627:10683   */\n      iszero\n      tag_227\n      jumpi\n        /* \"#utility.yul\":10663:10681   */\n      tag_228\n      tag_73\n      jump\t// in\n    tag_228:\n        /* \"#utility.yul\":10627:10683   */\n    tag_227:\n        /* \"#utility.yul\":10707:10745   */\n      tag_229\n        /* \"#utility.yul\":10739:10743   */\n      dup3\n        /* \"#utility.yul\":10733:10744   */\n      sload\n        /* \"#utility.yul\":10707:10745   */\n      tag_36\n      jump\t// in\n    tag_229:\n        /* \"#utility.yul\":10792:10859   */\n      tag_230\n        /* \"#utility.yul\":10852:10858   */\n      dup3\n        /* \"#utility.yul\":10844:10850   */\n      dup3\n        /* \"#utility.yul\":10838:10842   */\n      dup6\n        /* \"#utility.yul\":10792:10859   */\n      tag_100\n      jump\t// in\n    tag_230:\n        /* \"#utility.yul\":10886:10887   */\n      0x00\n        /* \"#utility.yul\":10910:10914   */\n      0x20\n        /* \"#utility.yul\":10897:10914   */\n      swap1\n      pop\n        /* \"#utility.yul\":10942:10944   */\n      0x1f\n        /* \"#utility.yul\":10934:10940   */\n      dup4\n        /* \"#utility.yul\":10931:10945   */\n      gt\n        /* \"#utility.yul\":10959:10960   */\n      0x01\n        /* \"#utility.yul\":10954:11572   */\n      dup2\n      eq\n      tag_232\n      jumpi\n        /* \"#utility.yul\":11616:11617   */\n      0x00\n        /* \"#utility.yul\":11633:11639   */\n      dup5\n        /* \"#utility.yul\":11630:11707   */\n      iszero\n      tag_233\n      jumpi\n        /* \"#utility.yul\":11682:11691   */\n      dup3\n        /* \"#utility.yul\":11677:11680   */\n      dup8\n        /* \"#utility.yul\":11673:11692   */\n      add\n        /* \"#utility.yul\":11667:11693   */\n      mload\n        /* \"#utility.yul\":11658:11693   */\n      swap1\n      pop\n        /* \"#utility.yul\":11630:11707   */\n    tag_233:\n        /* \"#utility.yul\":11733:11800   */\n      tag_234\n        /* \"#utility.yul\":11793:11799   */\n      dup6\n        /* \"#utility.yul\":11786:11791   */\n      dup3\n        /* \"#utility.yul\":11733:11800   */\n      tag_103\n      jump\t// in\n    tag_234:\n        /* \"#utility.yul\":11727:11731   */\n      dup7\n        /* \"#utility.yul\":11720:11801   */\n      sstore\n        /* \"#utility.yul\":11589:11811   */\n      pop\n        /* \"#utility.yul\":10924:11811   */\n      jump(tag_231)\n        /* \"#utility.yul\":10954:11572   */\n    tag_232:\n        /* \"#utility.yul\":11006:11010   */\n      0x1f\n        /* \"#utility.yul\":11002:11011   */\n      not\n        /* \"#utility.yul\":10994:11000   */\n      dup5\n        /* \"#utility.yul\":10990:11012   */\n      and\n        /* \"#utility.yul\":11040:11077   */\n      tag_235\n        /* \"#utility.yul\":11072:11076   */\n      dup7\n        /* \"#utility.yul\":11040:11077   */\n      tag_89\n      jump\t// in\n    tag_235:\n        /* \"#utility.yul\":11099:11100   */\n      0x00\n        /* \"#utility.yul\":11113:11321   */\n    tag_236:\n        /* \"#utility.yul\":11127:11134   */\n      dup3\n        /* \"#utility.yul\":11124:11125   */\n      dup2\n        /* \"#utility.yul\":11121:11135   */\n      lt\n        /* \"#utility.yul\":11113:11321   */\n      iszero\n      tag_238\n      jumpi\n        /* \"#utility.yul\":11206:11215   */\n      dup5\n        /* \"#utility.yul\":11201:11204   */\n      dup10\n        /* \"#utility.yul\":11197:11216   */\n      add\n        /* \"#utility.yul\":11191:11217   */\n      mload\n        /* \"#utility.yul\":11183:11189   */\n      dup3\n        /* \"#utility.yul\":11176:11218   */\n      sstore\n        /* \"#utility.yul\":11257:11258   */\n      0x01\n        /* \"#utility.yul\":11249:11255   */\n      dup3\n        /* \"#utility.yul\":11245:11259   */\n      add\n        /* \"#utility.yul\":11235:11259   */\n      swap2\n      pop\n        /* \"#utility.yul\":11304:11306   */\n      0x20\n        /* \"#utility.yul\":11293:11302   */\n      dup6\n        /* \"#utility.yul\":11289:11307   */\n      add\n        /* \"#utility.yul\":11276:11307   */\n      swap5\n      pop\n        /* \"#utility.yul\":11150:11154   */\n      0x20\n        /* \"#utility.yul\":11147:11148   */\n      dup2\n        /* \"#utility.yul\":11143:11155   */\n      add\n        /* \"#utility.yul\":11138:11155   */\n      swap1\n      pop\n        /* \"#utility.yul\":11113:11321   */\n      jump(tag_236)\n    tag_238:\n        /* \"#utility.yul\":11349:11355   */\n      dup7\n        /* \"#utility.yul\":11340:11347   */\n      dup4\n        /* \"#utility.yul\":11337:11356   */\n      lt\n        /* \"#utility.yul\":11334:11513   */\n      iszero\n      tag_239\n      jumpi\n        /* \"#utility.yul\":11407:11416   */\n      dup5\n        /* \"#utility.yul\":11402:11405   */\n      dup10\n        /* \"#utility.yul\":11398:11417   */\n      add\n        /* \"#utility.yul\":11392:11418   */\n      mload\n        /* \"#utility.yul\":11450:11498   */\n      tag_240\n        /* \"#utility.yul\":11492:11496   */\n      0x1f\n        /* \"#utility.yul\":11484:11490   */\n      dup10\n        /* \"#utility.yul\":11480:11497   */\n      and\n        /* \"#utility.yul\":11469:11478   */\n      dup3\n        /* \"#utility.yul\":11450:11498   */\n      tag_102\n      jump\t// in\n    tag_240:\n        /* \"#utility.yul\":11442:11448   */\n      dup4\n        /* \"#utility.yul\":11435:11499   */\n      sstore\n        /* \"#utility.yul\":11357:11513   */\n      pop\n        /* \"#utility.yul\":11334:11513   */\n    tag_239:\n        /* \"#utility.yul\":11559:11560   */\n      0x01\n        /* \"#utility.yul\":11555:11556   */\n      0x02\n        /* \"#utility.yul\":11547:11553   */\n      dup9\n        /* \"#utility.yul\":11543:11557   */\n      mul\n        /* \"#utility.yul\":11539:11561   */\n      add\n        /* \"#utility.yul\":11533:11537   */\n      dup9\n        /* \"#utility.yul\":11526:11562   */\n      sstore\n        /* \"#utility.yul\":10961:11572   */\n      pop\n      pop\n      pop\n        /* \"#utility.yul\":10924:11811   */\n    tag_231:\n      pop\n        /* \"#utility.yul\":10514:11817   */\n      pop\n      pop\n      pop\n        /* \"#utility.yul\":10422:11817   */\n      pop\n      pop\n      jump\t// out\n\n    auxdata: 0xa2646970667358221220c5ec6c92b822b1724b9d48b1c353d0ac1fa7af385d21efb5e2692c38f796bfe564736f6c63430008130033\n}\n",
				"bytecode": {
					"linkReferences": {},
					"object": "60806040523480156200001157600080fd5b506040518060400160405280600481526020017f4164616d000000000000000000000000000000000000000000000000000000008152506000806001815260200190815260200160002090816200006991906200039a565b506040518060400160405280600581526020017f4272756365000000000000000000000000000000000000000000000000000000815250600080600281526020019081526020016000209081620000c191906200039a565b506040518060400160405280600481526020017f4361726c000000000000000000000000000000000000000000000000000000008152506000806003815260200190815260200160002090816200011991906200039a565b5062000481565b600081519050919050565b7f4e487b7100000000000000000000000000000000000000000000000000000000600052604160045260246000fd5b7f4e487b7100000000000000000000000000000000000000000000000000000000600052602260045260246000fd5b60006002820490506001821680620001a257607f821691505b602082108103620001b857620001b76200015a565b5b50919050565b60008190508160005260206000209050919050565b60006020601f8301049050919050565b600082821b905092915050565b600060088302620002227fffffffffffffffffffffffffffffffffffffffffffffffffffffffffffffffff82620001e3565b6200022e8683620001e3565b95508019841693508086168417925050509392505050565b6000819050919050565b6000819050919050565b60006200027b620002756200026f8462000246565b62000250565b62000246565b9050919050565b6000819050919050565b62000297836200025a565b620002af620002a68262000282565b848454620001f0565b825550505050565b600090565b620002c6620002b7565b620002d38184846200028c565b505050565b5b81811015620002fb57620002ef600082620002bc565b600181019050620002d9565b5050565b601f8211156200034a576200031481620001be565b6200031f84620001d3565b810160208510156200032f578190505b620003476200033e85620001d3565b830182620002d8565b50505b505050565b600082821c905092915050565b60006200036f600019846008026200034f565b1980831691505092915050565b60006200038a83836200035c565b9150826002028217905092915050565b620003a58262000120565b67ffffffffffffffff811115620003c157620003c06200012b565b5b620003cd825462000189565b620003da828285620002ff565b600060209050601f831160018114620004125760008415620003fd578287015190505b6200040985826200037c565b86555062000479565b601f1984166200042286620001be565b60005b828110156200044c5784890151825560018201915060208501945060208101905062000425565b868310156200046c578489015162000468601f8916826200035c565b8355505b6001600288020188555050505b505050505050565b610c0280620004916000396000f3fe608060405234801561001057600080fd5b50600436106100575760003560e01c8063028414f21461005c57806327d3553f146100785780634622ab03146100a9578063493ec707146100d957806368744046146100f5575b600080fd5b610076600480360381019061007191906106c0565b610126565b005b610092600480360381019061008d91906107a9565b610182565b6040516100a0929190610868565b60405180910390f35b6100c360048036038101906100be919061089f565b6102c3565b6040516100d091906108cc565b60405180910390f35b6100f360048036038101906100ee91906106c0565b610363565b005b61010f600480360381019061010a919061089f565b6103fc565b60405161011d929190610868565b60405180910390f35b6040518060400160405280838152602001828152506001600085815260200190815260200160002060008201518160000190816101639190610afa565b5060208201518160010190816101799190610afa565b50905050505050565b6002602052816000526040600020602052806000526040600020600091509150508060000180546101b29061091d565b80601f01602080910402602001604051908101604052809291908181526020018280546101de9061091d565b801561022b5780601f106102005761010080835404028352916020019161022b565b820191906000526020600020905b81548152906001019060200180831161020e57829003601f168201915b5050505050908060010180546102409061091d565b80601f016020809104026020016040519081016040528092919081815260200182805461026c9061091d565b80156102b95780601f1061028e576101008083540402835291602001916102b9565b820191906000526020600020905b81548152906001019060200180831161029c57829003601f168201915b5050505050905082565b600060205280600052604060002060009150905080546102e29061091d565b80601f016020809104026020016040519081016040528092919081815260200182805461030e9061091d565b801561035b5780601f106103305761010080835404028352916020019161035b565b820191906000526020600020905b81548152906001019060200180831161033e57829003601f168201915b505050505081565b604051806040016040528083815260200182815250600260003373ffffffffffffffffffffffffffffffffffffffff1673ffffffffffffffffffffffffffffffffffffffff168152602001908152602001600020600085815260200190815260200160002060008201518160000190816103dd9190610afa565b5060208201518160010190816103f39190610afa565b50905050505050565b600160205280600052604060002060009150905080600001805461041f9061091d565b80601f016020809104026020016040519081016040528092919081815260200182805461044b9061091d565b80156104985780601f1061046d57610100808354040283529160200191610498565b820191906000526020600020905b81548152906001019060200180831161047b57829003601f168201915b5050505050908060010180546104ad9061091d565b80601f01602080910402602001604051908101604052809291908181526020018280546104d99061091d565b80156105265780601f106104fb57610100808354040283529160200191610526565b820191906000526020600020905b81548152906001019060200180831161050957829003601f168201915b5050505050905082565b6000604051905090565b600080fd5b600080fd5b6000819050919050565b61055781610544565b811461056257600080fd5b50565b6000813590506105748161054e565b92915050565b600080fd5b600080fd5b6000601f19601f8301169050919050565b7f4e487b7100000000000000000000000000000000000000000000000000000000600052604160045260246000fd5b6105cd82610584565b810181811067ffffffffffffffff821117156105ec576105eb610595565b5b80604052505050565b60006105ff610530565b905061060b82826105c4565b919050565b600067ffffffffffffffff82111561062b5761062a610595565b5b61063482610584565b9050602081019050919050565b82818337600083830152505050565b600061066361065e84610610565b6105f5565b90508281526020810184848401111561067f5761067e61057f565b5b61068a848285610641565b509392505050565b600082601f8301126106a7576106a661057a565b5b81356106b7848260208601610650565b91505092915050565b6000806000606084860312156106d9576106d861053a565b5b60006106e786828701610565565b935050602084013567ffffffffffffffff8111156107085761070761053f565b5b61071486828701610692565b925050604084013567ffffffffffffffff8111156107355761073461053f565b5b61074186828701610692565b9150509250925092565b600073ffffffffffffffffffffffffffffffffffffffff82169050919050565b60006107768261074b565b9050919050565b6107868161076b565b811461079157600080fd5b50565b6000813590506107a38161077d565b92915050565b600080604083850312156107c0576107bf61053a565b5b60006107ce85828601610794565b92505060206107df85828601610565565b9150509250929050565b600081519050919050565b600082825260208201905092915050565b60005b83811015610823578082015181840152602081019050610808565b60008484015250505050565b600061083a826107e9565b61084481856107f4565b9350610854818560208601610805565b61085d81610584565b840191505092915050565b60006040820190508181036000830152610882818561082f565b90508181036020830152610896818461082f565b90509392505050565b6000602082840312156108b5576108b461053a565b5b60006108c384828501610565565b91505092915050565b600060208201905081810360008301526108e6818461082f565b905092915050565b7f4e487b7100000000000000000000000000000000000000000000000000000000600052602260045260246000fd5b6000600282049050600182168061093557607f821691505b602082108103610948576109476108ee565b5b50919050565b60008190508160005260206000209050919050565b60006020601f8301049050919050565b600082821b905092915050565b6000600883026109b07fffffffffffffffffffffffffffffffffffffffffffffffffffffffffffffffff82610973565b6109ba8683610973565b95508019841693508086168417925050509392505050565b6000819050919050565b60006109f76109f26109ed84610544565b6109d2565b610544565b9050919050565b6000819050919050565b610a11836109dc565b610a25610a1d826109fe565b848454610980565b825550505050565b600090565b610a3a610a2d565b610a45818484610a08565b505050565b5b81811015610a6957610a5e600082610a32565b600181019050610a4b565b5050565b601f821115610aae57610a7f8161094e565b610a8884610963565b81016020851015610a97578190505b610aab610aa385610963565b830182610a4a565b50505b505050565b600082821c905092915050565b6000610ad160001984600802610ab3565b1980831691505092915050565b6000610aea8383610ac0565b9150826002028217905092915050565b610b03826107e9565b67ffffffffffffffff811115610b1c57610b1b610595565b5b610b26825461091d565b610b31828285610a6d565b600060209050601f831160018114610b645760008415610b52578287015190505b610b5c8582610ade565b865550610bc4565b601f198416610b728661094e565b60005b82811015610b9a57848901518255600182019150602085019450602081019050610b75565b86831015610bb75784890151610bb3601f891682610ac0565b8355505b6001600288020188555050505b50505050505056fea2646970667358221220c5ec6c92b822b1724b9d48b1c353d0ac1fa7af385d21efb5e2692c38f796bfe564736f6c63430008130033",
					"opcodes": "PUSH1 0x80 PUSH1 0x40 MSTORE CALLVALUE DUP1 ISZERO PUSH3 0x11 JUMPI PUSH1 0x0 DUP1 REVERT JUMPDEST POP PUSH1 0x40 MLOAD DUP1 PUSH1 0x40 ADD PUSH1 0x40 MSTORE DUP1 PUSH1 0x4 DUP2 MSTORE PUSH1 0x20 ADD PUSH32 0x4164616D00000000000000000000000000000000000000000000000000000000 DUP2 MSTORE POP PUSH1 0x0 DUP1 PUSH1 0x1 DUP2 MSTORE PUSH1 0x20 ADD SWAP1 DUP2 MSTORE PUSH1 0x20 ADD PUSH1 0x0 KECCAK256 SWAP1 DUP2 PUSH3 0x69 SWAP2 SWAP1 PUSH3 0x39A JUMP JUMPDEST POP PUSH1 0x40 MLOAD DUP1 PUSH1 0x40 ADD PUSH1 0x40 MSTORE DUP1 PUSH1 0x5 DUP2 MSTORE PUSH1 0x20 ADD PUSH32 0x4272756365000000000000000000000000000000000000000000000000000000 DUP2 MSTORE POP PUSH1 0x0 DUP1 PUSH1 0x2 DUP2 MSTORE PUSH1 0x20 ADD SWAP1 DUP2 MSTORE PUSH1 0x20 ADD PUSH1 0x0 KECCAK256 SWAP1 DUP2 PUSH3 0xC1 SWAP2 SWAP1 PUSH3 0x39A JUMP JUMPDEST POP PUSH1 0x40 MLOAD DUP1 PUSH1 0x40 ADD PUSH1 0x40 MSTORE DUP1 PUSH1 0x4 DUP2 MSTORE PUSH1 0x20 ADD PUSH32 0x4361726C00000000000000000000000000000000000000000000000000000000 DUP2 MSTORE POP PUSH1 0x0 DUP1 PUSH1 0x3 DUP2 MSTORE PUSH1 0x20 ADD SWAP1 DUP2 MSTORE PUSH1 0x20 ADD PUSH1 0x0 KECCAK256 SWAP1 DUP2 PUSH3 0x119 SWAP2 SWAP1 PUSH3 0x39A JUMP JUMPDEST POP PUSH3 0x481 JUMP JUMPDEST PUSH1 0x0 DUP2 MLOAD SWAP1 POP SWAP2 SWAP1 POP JUMP JUMPDEST PUSH32 0x4E487B7100000000000000000000000000000000000000000000000000000000 PUSH1 0x0 MSTORE PUSH1 0x41 PUSH1 0x4 MSTORE PUSH1 0x24 PUSH1 0x0 REVERT JUMPDEST PUSH32 0x4E487B7100000000000000000000000000000000000000000000000000000000 PUSH1 0x0 MSTORE PUSH1 0x22 PUSH1 0x4 MSTORE PUSH1 0x24 PUSH1 0x0 REVERT JUMPDEST PUSH1 0x0 PUSH1 0x2 DUP3 DIV SWAP1 POP PUSH1 0x1 DUP3 AND DUP1 PUSH3 0x1A2 JUMPI PUSH1 0x7F DUP3 AND SWAP2 POP JUMPDEST PUSH1 0x20 DUP3 LT DUP2 SUB PUSH3 0x1B8 JUMPI PUSH3 0x1B7 PUSH3 0x15A JUMP JUMPDEST JUMPDEST POP SWAP2 SWAP1 POP JUMP JUMPDEST PUSH1 0x0 DUP2 SWAP1 POP DUP2 PUSH1 0x0 MSTORE PUSH1 0x20 PUSH1 0x0 KECCAK256 SWAP1 POP SWAP2 SWAP1 POP JUMP JUMPDEST PUSH1 0x0 PUSH1 0x20 PUSH1 0x1F DUP4 ADD DIV SWAP1 POP SWAP2 SWAP1 POP JUMP JUMPDEST PUSH1 0x0 DUP3 DUP3 SHL SWAP1 POP SWAP3 SWAP2 POP POP JUMP JUMPDEST PUSH1 0x0 PUSH1 0x8 DUP4 MUL PUSH3 0x222 PUSH32 0xFFFFFFFFFFFFFFFFFFFFFFFFFFFFFFFFFFFFFFFFFFFFFFFFFFFFFFFFFFFFFFFF DUP3 PUSH3 0x1E3 JUMP JUMPDEST PUSH3 0x22E DUP7 DUP4 PUSH3 0x1E3 JUMP JUMPDEST SWAP6 POP DUP1 NOT DUP5 AND SWAP4 POP DUP1 DUP7 AND DUP5 OR SWAP3 POP POP POP SWAP4 SWAP3 POP POP POP JUMP JUMPDEST PUSH1 0x0 DUP2 SWAP1 POP SWAP2 SWAP1 POP JUMP JUMPDEST PUSH1 0x0 DUP2 SWAP1 POP SWAP2 SWAP1 POP JUMP JUMPDEST PUSH1 0x0 PUSH3 0x27B PUSH3 0x275 PUSH3 0x26F DUP5 PUSH3 0x246 JUMP JUMPDEST PUSH3 0x250 JUMP JUMPDEST PUSH3 0x246 JUMP JUMPDEST SWAP1 POP SWAP2 SWAP1 POP JUMP JUMPDEST PUSH1 0x0 DUP2 SWAP1 POP SWAP2 SWAP1 POP JUMP JUMPDEST PUSH3 0x297 DUP4 PUSH3 0x25A JUMP JUMPDEST PUSH3 0x2AF PUSH3 0x2A6 DUP3 PUSH3 0x282 JUMP JUMPDEST DUP5 DUP5 SLOAD PUSH3 0x1F0 JUMP JUMPDEST DUP3 SSTORE POP POP POP POP JUMP JUMPDEST PUSH1 0x0 SWAP1 JUMP JUMPDEST PUSH3 0x2C6 PUSH3 0x2B7 JUMP JUMPDEST PUSH3 0x2D3 DUP2 DUP5 DUP5 PUSH3 0x28C JUMP JUMPDEST POP POP POP JUMP JUMPDEST JUMPDEST DUP2 DUP2 LT ISZERO PUSH3 0x2FB JUMPI PUSH3 0x2EF PUSH1 0x0 DUP3 PUSH3 0x2BC JUMP JUMPDEST PUSH1 0x1 DUP2 ADD SWAP1 POP PUSH3 0x2D9 JUMP JUMPDEST POP POP JUMP JUMPDEST PUSH1 0x1F DUP3 GT ISZERO PUSH3 0x34A JUMPI PUSH3 0x314 DUP2 PUSH3 0x1BE JUMP JUMPDEST PUSH3 0x31F DUP5 PUSH3 0x1D3 JUMP JUMPDEST DUP2 ADD PUSH1 0x20 DUP6 LT ISZERO PUSH3 0x32F JUMPI DUP2 SWAP1 POP JUMPDEST PUSH3 0x347 PUSH3 0x33E DUP6 PUSH3 0x1D3 JUMP JUMPDEST DUP4 ADD DUP3 PUSH3 0x2D8 JUMP JUMPDEST POP POP JUMPDEST POP POP POP JUMP JUMPDEST PUSH1 0x0 DUP3 DUP3 SHR SWAP1 POP SWAP3 SWAP2 POP POP JUMP JUMPDEST PUSH1 0x0 PUSH3 0x36F PUSH1 0x0 NOT DUP5 PUSH1 0x8 MUL PUSH3 0x34F JUMP JUMPDEST NOT DUP1 DUP4 AND SWAP2 POP POP SWAP3 SWAP2 POP POP JUMP JUMPDEST PUSH1 0x0 PUSH3 0x38A DUP4 DUP4 PUSH3 0x35C JUMP JUMPDEST SWAP2 POP DUP3 PUSH1 0x2 MUL DUP3 OR SWAP1 POP SWAP3 SWAP2 POP POP JUMP JUMPDEST PUSH3 0x3A5 DUP3 PUSH3 0x120 JUMP JUMPDEST PUSH8 0xFFFFFFFFFFFFFFFF DUP2 GT ISZERO PUSH3 0x3C1 JUMPI PUSH3 0x3C0 PUSH3 0x12B JUMP JUMPDEST JUMPDEST PUSH3 0x3CD DUP3 SLOAD PUSH3 0x189 JUMP JUMPDEST PUSH3 0x3DA DUP3 DUP3 DUP6 PUSH3 0x2FF JUMP JUMPDEST PUSH1 0x0 PUSH1 0x20 SWAP1 POP PUSH1 0x1F DUP4 GT PUSH1 0x1 DUP2 EQ PUSH3 0x412 JUMPI PUSH1 0x0 DUP5 ISZERO PUSH3 0x3FD JUMPI DUP3 DUP8 ADD MLOAD SWAP1 POP JUMPDEST PUSH3 0x409 DUP6 DUP3 PUSH3 0x37C JUMP JUMPDEST DUP7 SSTORE POP PUSH3 0x479 JUMP JUMPDEST PUSH1 0x1F NOT DUP5 AND PUSH3 0x422 DUP7 PUSH3 0x1BE JUMP JUMPDEST PUSH1 0x0 JUMPDEST DUP3 DUP2 LT ISZERO PUSH3 0x44C JUMPI DUP5 DUP10 ADD MLOAD DUP3 SSTORE PUSH1 0x1 DUP3 ADD SWAP2 POP PUSH1 0x20 DUP6 ADD SWAP5 POP PUSH1 0x20 DUP2 ADD SWAP1 POP PUSH3 0x425 JUMP JUMPDEST DUP7 DUP4 LT ISZERO PUSH3 0x46C JUMPI DUP5 DUP10 ADD MLOAD PUSH3 0x468 PUSH1 0x1F DUP10 AND DUP3 PUSH3 0x35C JUMP JUMPDEST DUP4 SSTORE POP JUMPDEST PUSH1 0x1 PUSH1 0x2 DUP9 MUL ADD DUP9 SSTORE POP POP POP JUMPDEST POP POP POP POP POP POP JUMP JUMPDEST PUSH2 0xC02 DUP1 PUSH3 0x491 PUSH1 0x0 CODECOPY PUSH1 0x0 RETURN INVALID PUSH1 0x80 PUSH1 0x40 MSTORE CALLVALUE DUP1 ISZERO PUSH2 0x10 JUMPI PUSH1 0x0 DUP1 REVERT JUMPDEST POP PUSH1 0x4 CALLDATASIZE LT PUSH2 0x57 JUMPI PUSH1 0x0 CALLDATALOAD PUSH1 0xE0 SHR DUP1 PUSH4 0x28414F2 EQ PUSH2 0x5C JUMPI DUP1 PUSH4 0x27D3553F EQ PUSH2 0x78 JUMPI DUP1 PUSH4 0x4622AB03 EQ PUSH2 0xA9 JUMPI DUP1 PUSH4 0x493EC707 EQ PUSH2 0xD9 JUMPI DUP1 PUSH4 0x68744046 EQ PUSH2 0xF5 JUMPI JUMPDEST PUSH1 0x0 DUP1 REVERT JUMPDEST PUSH2 0x76 PUSH1 0x4 DUP1 CALLDATASIZE SUB DUP2 ADD SWAP1 PUSH2 0x71 SWAP2 SWAP1 PUSH2 0x6C0 JUMP JUMPDEST PUSH2 0x126 JUMP JUMPDEST STOP JUMPDEST PUSH2 0x92 PUSH1 0x4 DUP1 CALLDATASIZE SUB DUP2 ADD SWAP1 PUSH2 0x8D SWAP2 SWAP1 PUSH2 0x7A9 JUMP JUMPDEST PUSH2 0x182 JUMP JUMPDEST PUSH1 0x40 MLOAD PUSH2 0xA0 SWAP3 SWAP2 SWAP1 PUSH2 0x868 JUMP JUMPDEST PUSH1 0x40 MLOAD DUP1 SWAP2 SUB SWAP1 RETURN JUMPDEST PUSH2 0xC3 PUSH1 0x4 DUP1 CALLDATASIZE SUB DUP2 ADD SWAP1 PUSH2 0xBE SWAP2 SWAP1 PUSH2 0x89F JUMP JUMPDEST PUSH2 0x2C3 JUMP JUMPDEST PUSH1 0x40 MLOAD PUSH2 0xD0 SWAP2 SWAP1 PUSH2 0x8CC JUMP JUMPDEST PUSH1 0x40 MLOAD DUP1 SWAP2 SUB SWAP1 RETURN JUMPDEST PUSH2 0xF3 PUSH1 0x4 DUP1 CALLDATASIZE SUB DUP2 ADD SWAP1 PUSH2 0xEE SWAP2 SWAP1 PUSH2 0x6C0 JUMP JUMPDEST PUSH2 0x363 JUMP JUMPDEST STOP JUMPDEST PUSH2 0x10F PUSH1 0x4 DUP1 CALLDATASIZE SUB DUP2 ADD SWAP1 PUSH2 0x10A SWAP2 SWAP1 PUSH2 0x89F JUMP JUMPDEST PUSH2 0x3FC JUMP JUMPDEST PUSH1 0x40 MLOAD PUSH2 0x11D SWAP3 SWAP2 SWAP1 PUSH2 0x868 JUMP JUMPDEST PUSH1 0x40 MLOAD DUP1 SWAP2 SUB SWAP1 RETURN JUMPDEST PUSH1 0x40 MLOAD DUP1 PUSH1 0x40 ADD PUSH1 0x40 MSTORE DUP1 DUP4 DUP2 MSTORE PUSH1 0x20 ADD DUP3 DUP2 MSTORE POP PUSH1 0x1 PUSH1 0x0 DUP6 DUP2 MSTORE PUSH1 0x20 ADD SWAP1 DUP2 MSTORE PUSH1 0x20 ADD PUSH1 0x0 KECCAK256 PUSH1 0x0 DUP3 ADD MLOAD DUP2 PUSH1 0x0 ADD SWAP1 DUP2 PUSH2 0x163 SWAP2 SWAP1 PUSH2 0xAFA JUMP JUMPDEST POP PUSH1 0x20 DUP3 ADD MLOAD DUP2 PUSH1 0x1 ADD SWAP1 DUP2 PUSH2 0x179 SWAP2 SWAP1 PUSH2 0xAFA JUMP JUMPDEST POP SWAP1 POP POP POP POP POP JUMP JUMPDEST PUSH1 0x2 PUSH1 0x20 MSTORE DUP2 PUSH1 0x0 MSTORE PUSH1 0x40 PUSH1 0x0 KECCAK256 PUSH1 0x20 MSTORE DUP1 PUSH1 0x0 MSTORE PUSH1 0x40 PUSH1 0x0 KECCAK256 PUSH1 0x0 SWAP2 POP SWAP2 POP POP DUP1 PUSH1 0x0 ADD DUP1 SLOAD PUSH2 0x1B2 SWAP1 PUSH2 0x91D JUMP JUMPDEST DUP1 PUSH1 0x1F ADD PUSH1 0x20 DUP1 SWAP2 DIV MUL PUSH1 0x20 ADD PUSH1 0x40 MLOAD SWAP1 DUP2 ADD PUSH1 0x40 MSTORE DUP1 SWAP3 SWAP2 SWAP1 DUP2 DUP2 MSTORE PUSH1 0x20 ADD DUP3 DUP1 SLOAD PUSH2 0x1DE SWAP1 PUSH2 0x91D JUMP JUMPDEST DUP1 ISZERO PUSH2 0x22B JUMPI DUP1 PUSH1 0x1F LT PUSH2 0x200 JUMPI PUSH2 0x100 DUP1 DUP4 SLOAD DIV MUL DUP4 MSTORE SWAP2 PUSH1 0x20 ADD SWAP2 PUSH2 0x22B JUMP JUMPDEST DUP3 ADD SWAP2 SWAP1 PUSH1 0x0 MSTORE PUSH1 0x20 PUSH1 0x0 KECCAK256 SWAP1 JUMPDEST DUP2 SLOAD DUP2 MSTORE SWAP1 PUSH1 0x1 ADD SWAP1 PUSH1 0x20 ADD DUP1 DUP4 GT PUSH2 0x20E JUMPI DUP3 SWAP1 SUB PUSH1 0x1F AND DUP3 ADD SWAP2 JUMPDEST POP POP POP POP POP SWAP1 DUP1 PUSH1 0x1 ADD DUP1 SLOAD PUSH2 0x240 SWAP1 PUSH2 0x91D JUMP JUMPDEST DUP1 PUSH1 0x1F ADD PUSH1 0x20 DUP1 SWAP2 DIV MUL PUSH1 0x20 ADD PUSH1 0x40 MLOAD SWAP1 DUP2 ADD PUSH1 0x40 MSTORE DUP1 SWAP3 SWAP2 SWAP1 DUP2 DUP2 MSTORE PUSH1 0x20 ADD DUP3 DUP1 SLOAD PUSH2 0x26C SWAP1 PUSH2 0x91D JUMP JUMPDEST DUP1 ISZERO PUSH2 0x2B9 JUMPI DUP1 PUSH1 0x1F LT PUSH2 0x28E JUMPI PUSH2 0x100 DUP1 DUP4 SLOAD DIV MUL DUP4 MSTORE SWAP2 PUSH1 0x20 ADD SWAP2 PUSH2 0x2B9 JUMP JUMPDEST DUP3 ADD SWAP2 SWAP1 PUSH1 0x0 MSTORE PUSH1 0x20 PUSH1 0x0 KECCAK256 SWAP1 JUMPDEST DUP2 SLOAD DUP2 MSTORE SWAP1 PUSH1 0x1 ADD SWAP1 PUSH1 0x20 ADD DUP1 DUP4 GT PUSH2 0x29C JUMPI DUP3 SWAP1 SUB PUSH1 0x1F AND DUP3 ADD SWAP2 JUMPDEST POP POP POP POP POP SWAP1 POP DUP3 JUMP JUMPDEST PUSH1 0x0 PUSH1 0x20 MSTORE DUP1 PUSH1 0x0 MSTORE PUSH1 0x40 PUSH1 0x0 KECCAK256 PUSH1 0x0 SWAP2 POP SWAP1 POP DUP1 SLOAD PUSH2 0x2E2 SWAP1 PUSH2 0x91D JUMP JUMPDEST DUP1 PUSH1 0x1F ADD PUSH1 0x20 DUP1 SWAP2 DIV MUL PUSH1 0x20 ADD PUSH1 0x40 MLOAD SWAP1 DUP2 ADD PUSH1 0x40 MSTORE DUP1 SWAP3 SWAP2 SWAP1 DUP2 DUP2 MSTORE PUSH1 0x20 ADD DUP3 DUP1 SLOAD PUSH2 0x30E SWAP1 PUSH2 0x91D JUMP JUMPDEST DUP1 ISZERO PUSH2 0x35B JUMPI DUP1 PUSH1 0x1F LT PUSH2 0x330 JUMPI PUSH2 0x100 DUP1 DUP4 SLOAD DIV MUL DUP4 MSTORE SWAP2 PUSH1 0x20 ADD SWAP2 PUSH2 0x35B JUMP JUMPDEST DUP3 ADD SWAP2 SWAP1 PUSH1 0x0 MSTORE PUSH1 0x20 PUSH1 0x0 KECCAK256 SWAP1 JUMPDEST DUP2 SLOAD DUP2 MSTORE SWAP1 PUSH1 0x1 ADD SWAP1 PUSH1 0x20 ADD DUP1 DUP4 GT PUSH2 0x33E JUMPI DUP3 SWAP1 SUB PUSH1 0x1F AND DUP3 ADD SWAP2 JUMPDEST POP POP POP POP POP DUP2 JUMP JUMPDEST PUSH1 0x40 MLOAD DUP1 PUSH1 0x40 ADD PUSH1 0x40 MSTORE DUP1 DUP4 DUP2 MSTORE PUSH1 0x20 ADD DUP3 DUP2 MSTORE POP PUSH1 0x2 PUSH1 0x0 CALLER PUSH20 0xFFFFFFFFFFFFFFFFFFFFFFFFFFFFFFFFFFFFFFFF AND PUSH20 0xFFFFFFFFFFFFFFFFFFFFFFFFFFFFFFFFFFFFFFFF AND DUP2 MSTORE PUSH1 0x20 ADD SWAP1 DUP2 MSTORE PUSH1 0x20 ADD PUSH1 0x0 KECCAK256 PUSH1 0x0 DUP6 DUP2 MSTORE PUSH1 0x20 ADD SWAP1 DUP2 MSTORE PUSH1 0x20 ADD PUSH1 0x0 KECCAK256 PUSH1 0x0 DUP3 ADD MLOAD DUP2 PUSH1 0x0 ADD SWAP1 DUP2 PUSH2 0x3DD SWAP2 SWAP1 PUSH2 0xAFA JUMP JUMPDEST POP PUSH1 0x20 DUP3 ADD MLOAD DUP2 PUSH1 0x1 ADD SWAP1 DUP2 PUSH2 0x3F3 SWAP2 SWAP1 PUSH2 0xAFA JUMP JUMPDEST POP SWAP1 POP POP POP POP POP JUMP JUMPDEST PUSH1 0x1 PUSH1 0x20 MSTORE DUP1 PUSH1 0x0 MSTORE PUSH1 0x40 PUSH1 0x0 KECCAK256 PUSH1 0x0 SWAP2 POP SWAP1 POP DUP1 PUSH1 0x0 ADD DUP1 SLOAD PUSH2 0x41F SWAP1 PUSH2 0x91D JUMP JUMPDEST DUP1 PUSH1 0x1F ADD PUSH1 0x20 DUP1 SWAP2 DIV MUL PUSH1 0x20 ADD PUSH1 0x40 MLOAD SWAP1 DUP2 ADD PUSH1 0x40 MSTORE DUP1 SWAP3 SWAP2 SWAP1 DUP2 DUP2 MSTORE PUSH1 0x20 ADD DUP3 DUP1 SLOAD PUSH2 0x44B SWAP1 PUSH2 0x91D JUMP JUMPDEST DUP1 ISZERO PUSH2 0x498 JUMPI DUP1 PUSH1 0x1F LT PUSH2 0x46D JUMPI PUSH2 0x100 DUP1 DUP4 SLOAD DIV MUL DUP4 MSTORE SWAP2 PUSH1 0x20 ADD SWAP2 PUSH2 0x498 JUMP JUMPDEST DUP3 ADD SWAP2 SWAP1 PUSH1 0x0 MSTORE PUSH1 0x20 PUSH1 0x0 KECCAK256 SWAP1 JUMPDEST DUP2 SLOAD DUP2 MSTORE SWAP1 PUSH1 0x1 ADD SWAP1 PUSH1 0x20 ADD DUP1 DUP4 GT PUSH2 0x47B JUMPI DUP3 SWAP1 SUB PUSH1 0x1F AND DUP3 ADD SWAP2 JUMPDEST POP POP POP POP POP SWAP1 DUP1 PUSH1 0x1 ADD DUP1 SLOAD PUSH2 0x4AD SWAP1 PUSH2 0x91D JUMP JUMPDEST DUP1 PUSH1 0x1F ADD PUSH1 0x20 DUP1 SWAP2 DIV MUL PUSH1 0x20 ADD PUSH1 0x40 MLOAD SWAP1 DUP2 ADD PUSH1 0x40 MSTORE DUP1 SWAP3 SWAP2 SWAP1 DUP2 DUP2 MSTORE PUSH1 0x20 ADD DUP3 DUP1 SLOAD PUSH2 0x4D9 SWAP1 PUSH2 0x91D JUMP JUMPDEST DUP1 ISZERO PUSH2 0x526 JUMPI DUP1 PUSH1 0x1F LT PUSH2 0x4FB JUMPI PUSH2 0x100 DUP1 DUP4 SLOAD DIV MUL DUP4 MSTORE SWAP2 PUSH1 0x20 ADD SWAP2 PUSH2 0x526 JUMP JUMPDEST DUP3 ADD SWAP2 SWAP1 PUSH1 0x0 MSTORE PUSH1 0x20 PUSH1 0x0 KECCAK256 SWAP1 JUMPDEST DUP2 SLOAD DUP2 MSTORE SWAP1 PUSH1 0x1 ADD SWAP1 PUSH1 0x20 ADD DUP1 DUP4 GT PUSH2 0x509 JUMPI DUP3 SWAP1 SUB PUSH1 0x1F AND DUP3 ADD SWAP2 JUMPDEST POP POP POP POP POP SWAP1 POP DUP3 JUMP JUMPDEST PUSH1 0x0 PUSH1 0x40 MLOAD SWAP1 POP SWAP1 JUMP JUMPDEST PUSH1 0x0 DUP1 REVERT JUMPDEST PUSH1 0x0 DUP1 REVERT JUMPDEST PUSH1 0x0 DUP2 SWAP1 POP SWAP2 SWAP1 POP JUMP JUMPDEST PUSH2 0x557 DUP2 PUSH2 0x544 JUMP JUMPDEST DUP2 EQ PUSH2 0x562 JUMPI PUSH1 0x0 DUP1 REVERT JUMPDEST POP JUMP JUMPDEST PUSH1 0x0 DUP2 CALLDATALOAD SWAP1 POP PUSH2 0x574 DUP2 PUSH2 0x54E JUMP JUMPDEST SWAP3 SWAP2 POP POP JUMP JUMPDEST PUSH1 0x0 DUP1 REVERT JUMPDEST PUSH1 0x0 DUP1 REVERT JUMPDEST PUSH1 0x0 PUSH1 0x1F NOT PUSH1 0x1F DUP4 ADD AND SWAP1 POP SWAP2 SWAP1 POP JUMP JUMPDEST PUSH32 0x4E487B7100000000000000000000000000000000000000000000000000000000 PUSH1 0x0 MSTORE PUSH1 0x41 PUSH1 0x4 MSTORE PUSH1 0x24 PUSH1 0x0 REVERT JUMPDEST PUSH2 0x5CD DUP3 PUSH2 0x584 JUMP JUMPDEST DUP2 ADD DUP2 DUP2 LT PUSH8 0xFFFFFFFFFFFFFFFF DUP3 GT OR ISZERO PUSH2 0x5EC JUMPI PUSH2 0x5EB PUSH2 0x595 JUMP JUMPDEST JUMPDEST DUP1 PUSH1 0x40 MSTORE POP POP POP JUMP JUMPDEST PUSH1 0x0 PUSH2 0x5FF PUSH2 0x530 JUMP JUMPDEST SWAP1 POP PUSH2 0x60B DUP3 DUP3 PUSH2 0x5C4 JUMP JUMPDEST SWAP2 SWAP1 POP JUMP JUMPDEST PUSH1 0x0 PUSH8 0xFFFFFFFFFFFFFFFF DUP3 GT ISZERO PUSH2 0x62B JUMPI PUSH2 0x62A PUSH2 0x595 JUMP JUMPDEST JUMPDEST PUSH2 0x634 DUP3 PUSH2 0x584 JUMP JUMPDEST SWAP1 POP PUSH1 0x20 DUP2 ADD SWAP1 POP SWAP2 SWAP1 POP JUMP JUMPDEST DUP3 DUP2 DUP4 CALLDATACOPY PUSH1 0x0 DUP4 DUP4 ADD MSTORE POP POP POP JUMP JUMPDEST PUSH1 0x0 PUSH2 0x663 PUSH2 0x65E DUP5 PUSH2 0x610 JUMP JUMPDEST PUSH2 0x5F5 JUMP JUMPDEST SWAP1 POP DUP3 DUP2 MSTORE PUSH1 0x20 DUP2 ADD DUP5 DUP5 DUP5 ADD GT ISZERO PUSH2 0x67F JUMPI PUSH2 0x67E PUSH2 0x57F JUMP JUMPDEST JUMPDEST PUSH2 0x68A DUP5 DUP3 DUP6 PUSH2 0x641 JUMP JUMPDEST POP SWAP4 SWAP3 POP POP POP JUMP JUMPDEST PUSH1 0x0 DUP3 PUSH1 0x1F DUP4 ADD SLT PUSH2 0x6A7 JUMPI PUSH2 0x6A6 PUSH2 0x57A JUMP JUMPDEST JUMPDEST DUP2 CALLDATALOAD PUSH2 0x6B7 DUP5 DUP3 PUSH1 0x20 DUP7 ADD PUSH2 0x650 JUMP JUMPDEST SWAP2 POP POP SWAP3 SWAP2 POP POP JUMP JUMPDEST PUSH1 0x0 DUP1 PUSH1 0x0 PUSH1 0x60 DUP5 DUP7 SUB SLT ISZERO PUSH2 0x6D9 JUMPI PUSH2 0x6D8 PUSH2 0x53A JUMP JUMPDEST JUMPDEST PUSH1 0x0 PUSH2 0x6E7 DUP7 DUP3 DUP8 ADD PUSH2 0x565 JUMP JUMPDEST SWAP4 POP POP PUSH1 0x20 DUP5 ADD CALLDATALOAD PUSH8 0xFFFFFFFFFFFFFFFF DUP2 GT ISZERO PUSH2 0x708 JUMPI PUSH2 0x707 PUSH2 0x53F JUMP JUMPDEST JUMPDEST PUSH2 0x714 DUP7 DUP3 DUP8 ADD PUSH2 0x692 JUMP JUMPDEST SWAP3 POP POP PUSH1 0x40 DUP5 ADD CALLDATALOAD PUSH8 0xFFFFFFFFFFFFFFFF DUP2 GT ISZERO PUSH2 0x735 JUMPI PUSH2 0x734 PUSH2 0x53F JUMP JUMPDEST JUMPDEST PUSH2 0x741 DUP7 DUP3 DUP8 ADD PUSH2 0x692 JUMP JUMPDEST SWAP2 POP POP SWAP3 POP SWAP3 POP SWAP3 JUMP JUMPDEST PUSH1 0x0 PUSH20 0xFFFFFFFFFFFFFFFFFFFFFFFFFFFFFFFFFFFFFFFF DUP3 AND SWAP1 POP SWAP2 SWAP1 POP JUMP JUMPDEST PUSH1 0x0 PUSH2 0x776 DUP3 PUSH2 0x74B JUMP JUMPDEST SWAP1 POP SWAP2 SWAP1 POP JUMP JUMPDEST PUSH2 0x786 DUP2 PUSH2 0x76B JUMP JUMPDEST DUP2 EQ PUSH2 0x791 JUMPI PUSH1 0x0 DUP1 REVERT JUMPDEST POP JUMP JUMPDEST PUSH1 0x0 DUP2 CALLDATALOAD SWAP1 POP PUSH2 0x7A3 DUP2 PUSH2 0x77D JUMP JUMPDEST SWAP3 SWAP2 POP POP JUMP JUMPDEST PUSH1 0x0 DUP1 PUSH1 0x40 DUP4 DUP6 SUB SLT ISZERO PUSH2 0x7C0 JUMPI PUSH2 0x7BF PUSH2 0x53A JUMP JUMPDEST JUMPDEST PUSH1 0x0 PUSH2 0x7CE DUP6 DUP3 DUP7 ADD PUSH2 0x794 JUMP JUMPDEST SWAP3 POP POP PUSH1 0x20 PUSH2 0x7DF DUP6 DUP3 DUP7 ADD PUSH2 0x565 JUMP JUMPDEST SWAP2 POP POP SWAP3 POP SWAP3 SWAP1 POP JUMP JUMPDEST PUSH1 0x0 DUP2 MLOAD SWAP1 POP SWAP2 SWAP1 POP JUMP JUMPDEST PUSH1 0x0 DUP3 DUP3 MSTORE PUSH1 0x20 DUP3 ADD SWAP1 POP SWAP3 SWAP2 POP POP JUMP JUMPDEST PUSH1 0x0 JUMPDEST DUP4 DUP2 LT ISZERO PUSH2 0x823 JUMPI DUP1 DUP3 ADD MLOAD DUP2 DUP5 ADD MSTORE PUSH1 0x20 DUP2 ADD SWAP1 POP PUSH2 0x808 JUMP JUMPDEST PUSH1 0x0 DUP5 DUP5 ADD MSTORE POP POP POP POP JUMP JUMPDEST PUSH1 0x0 PUSH2 0x83A DUP3 PUSH2 0x7E9 JUMP JUMPDEST PUSH2 0x844 DUP2 DUP6 PUSH2 0x7F4 JUMP JUMPDEST SWAP4 POP PUSH2 0x854 DUP2 DUP6 PUSH1 0x20 DUP7 ADD PUSH2 0x805 JUMP JUMPDEST PUSH2 0x85D DUP2 PUSH2 0x584 JUMP JUMPDEST DUP5 ADD SWAP2 POP POP SWAP3 SWAP2 POP POP JUMP JUMPDEST PUSH1 0x0 PUSH1 0x40 DUP3 ADD SWAP1 POP DUP2 DUP2 SUB PUSH1 0x0 DUP4 ADD MSTORE PUSH2 0x882 DUP2 DUP6 PUSH2 0x82F JUMP JUMPDEST SWAP1 POP DUP2 DUP2 SUB PUSH1 0x20 DUP4 ADD MSTORE PUSH2 0x896 DUP2 DUP5 PUSH2 0x82F JUMP JUMPDEST SWAP1 POP SWAP4 SWAP3 POP POP POP JUMP JUMPDEST PUSH1 0x0 PUSH1 0x20 DUP3 DUP5 SUB SLT ISZERO PUSH2 0x8B5 JUMPI PUSH2 0x8B4 PUSH2 0x53A JUMP JUMPDEST JUMPDEST PUSH1 0x0 PUSH2 0x8C3 DUP5 DUP3 DUP6 ADD PUSH2 0x565 JUMP JUMPDEST SWAP2 POP POP SWAP3 SWAP2 POP POP JUMP JUMPDEST PUSH1 0x0 PUSH1 0x20 DUP3 ADD SWAP1 POP DUP2 DUP2 SUB PUSH1 0x0 DUP4 ADD MSTORE PUSH2 0x8E6 DUP2 DUP5 PUSH2 0x82F JUMP JUMPDEST SWAP1 POP SWAP3 SWAP2 POP POP JUMP JUMPDEST PUSH32 0x4E487B7100000000000000000000000000000000000000000000000000000000 PUSH1 0x0 MSTORE PUSH1 0x22 PUSH1 0x4 MSTORE PUSH1 0x24 PUSH1 0x0 REVERT JUMPDEST PUSH1 0x0 PUSH1 0x2 DUP3 DIV SWAP1 POP PUSH1 0x1 DUP3 AND DUP1 PUSH2 0x935 JUMPI PUSH1 0x7F DUP3 AND SWAP2 POP JUMPDEST PUSH1 0x20 DUP3 LT DUP2 SUB PUSH2 0x948 JUMPI PUSH2 0x947 PUSH2 0x8EE JUMP JUMPDEST JUMPDEST POP SWAP2 SWAP1 POP JUMP JUMPDEST PUSH1 0x0 DUP2 SWAP1 POP DUP2 PUSH1 0x0 MSTORE PUSH1 0x20 PUSH1 0x0 KECCAK256 SWAP1 POP SWAP2 SWAP1 POP JUMP JUMPDEST PUSH1 0x0 PUSH1 0x20 PUSH1 0x1F DUP4 ADD DIV SWAP1 POP SWAP2 SWAP1 POP JUMP JUMPDEST PUSH1 0x0 DUP3 DUP3 SHL SWAP1 POP SWAP3 SWAP2 POP POP JUMP JUMPDEST PUSH1 0x0 PUSH1 0x8 DUP4 MUL PUSH2 0x9B0 PUSH32 0xFFFFFFFFFFFFFFFFFFFFFFFFFFFFFFFFFFFFFFFFFFFFFFFFFFFFFFFFFFFFFFFF DUP3 PUSH2 0x973 JUMP JUMPDEST PUSH2 0x9BA DUP7 DUP4 PUSH2 0x973 JUMP JUMPDEST SWAP6 POP DUP1 NOT DUP5 AND SWAP4 POP DUP1 DUP7 AND DUP5 OR SWAP3 POP POP POP SWAP4 SWAP3 POP POP POP JUMP JUMPDEST PUSH1 0x0 DUP2 SWAP1 POP SWAP2 SWAP1 POP JUMP JUMPDEST PUSH1 0x0 PUSH2 0x9F7 PUSH2 0x9F2 PUSH2 0x9ED DUP5 PUSH2 0x544 JUMP JUMPDEST PUSH2 0x9D2 JUMP JUMPDEST PUSH2 0x544 JUMP JUMPDEST SWAP1 POP SWAP2 SWAP1 POP JUMP JUMPDEST PUSH1 0x0 DUP2 SWAP1 POP SWAP2 SWAP1 POP JUMP JUMPDEST PUSH2 0xA11 DUP4 PUSH2 0x9DC JUMP JUMPDEST PUSH2 0xA25 PUSH2 0xA1D DUP3 PUSH2 0x9FE JUMP JUMPDEST DUP5 DUP5 SLOAD PUSH2 0x980 JUMP JUMPDEST DUP3 SSTORE POP POP POP POP JUMP JUMPDEST PUSH1 0x0 SWAP1 JUMP JUMPDEST PUSH2 0xA3A PUSH2 0xA2D JUMP JUMPDEST PUSH2 0xA45 DUP2 DUP5 DUP5 PUSH2 0xA08 JUMP JUMPDEST POP POP POP JUMP JUMPDEST JUMPDEST DUP2 DUP2 LT ISZERO PUSH2 0xA69 JUMPI PUSH2 0xA5E PUSH1 0x0 DUP3 PUSH2 0xA32 JUMP JUMPDEST PUSH1 0x1 DUP2 ADD SWAP1 POP PUSH2 0xA4B JUMP JUMPDEST POP POP JUMP JUMPDEST PUSH1 0x1F DUP3 GT ISZERO PUSH2 0xAAE JUMPI PUSH2 0xA7F DUP2 PUSH2 0x94E JUMP JUMPDEST PUSH2 0xA88 DUP5 PUSH2 0x963 JUMP JUMPDEST DUP2 ADD PUSH1 0x20 DUP6 LT ISZERO PUSH2 0xA97 JUMPI DUP2 SWAP1 POP JUMPDEST PUSH2 0xAAB PUSH2 0xAA3 DUP6 PUSH2 0x963 JUMP JUMPDEST DUP4 ADD DUP3 PUSH2 0xA4A JUMP JUMPDEST POP POP JUMPDEST POP POP POP JUMP JUMPDEST PUSH1 0x0 DUP3 DUP3 SHR SWAP1 POP SWAP3 SWAP2 POP POP JUMP JUMPDEST PUSH1 0x0 PUSH2 0xAD1 PUSH1 0x0 NOT DUP5 PUSH1 0x8 MUL PUSH2 0xAB3 JUMP JUMPDEST NOT DUP1 DUP4 AND SWAP2 POP POP SWAP3 SWAP2 POP POP JUMP JUMPDEST PUSH1 0x0 PUSH2 0xAEA DUP4 DUP4 PUSH2 0xAC0 JUMP JUMPDEST SWAP2 POP DUP3 PUSH1 0x2 MUL DUP3 OR SWAP1 POP SWAP3 SWAP2 POP POP JUMP JUMPDEST PUSH2 0xB03 DUP3 PUSH2 0x7E9 JUMP JUMPDEST PUSH8 0xFFFFFFFFFFFFFFFF DUP2 GT ISZERO PUSH2 0xB1C JUMPI PUSH2 0xB1B PUSH2 0x595 JUMP JUMPDEST JUMPDEST PUSH2 0xB26 DUP3 SLOAD PUSH2 0x91D JUMP JUMPDEST PUSH2 0xB31 DUP3 DUP3 DUP6 PUSH2 0xA6D JUMP JUMPDEST PUSH1 0x0 PUSH1 0x20 SWAP1 POP PUSH1 0x1F DUP4 GT PUSH1 0x1 DUP2 EQ PUSH2 0xB64 JUMPI PUSH1 0x0 DUP5 ISZERO PUSH2 0xB52 JUMPI DUP3 DUP8 ADD MLOAD SWAP1 POP JUMPDEST PUSH2 0xB5C DUP6 DUP3 PUSH2 0xADE JUMP JUMPDEST DUP7 SSTORE POP PUSH2 0xBC4 JUMP JUMPDEST PUSH1 0x1F NOT DUP5 AND PUSH2 0xB72 DUP7 PUSH2 0x94E JUMP JUMPDEST PUSH1 0x0 JUMPDEST DUP3 DUP2 LT ISZERO PUSH2 0xB9A JUMPI DUP5 DUP10 ADD MLOAD DUP3 SSTORE PUSH1 0x1 DUP3 ADD SWAP2 POP PUSH1 0x20 DUP6 ADD SWAP5 POP PUSH1 0x20 DUP2 ADD SWAP1 POP PUSH2 0xB75 JUMP JUMPDEST DUP7 DUP4 LT ISZERO PUSH2 0xBB7 JUMPI DUP5 DUP10 ADD MLOAD PUSH2 0xBB3 PUSH1 0x1F DUP10 AND DUP3 PUSH2 0xAC0 JUMP JUMPDEST DUP4 SSTORE POP JUMPDEST PUSH1 0x1 PUSH1 0x2 DUP9 MUL ADD DUP9 SSTORE POP POP POP JUMPDEST POP POP POP POP POP POP JUMP INVALID LOG2 PUSH5 0x6970667358 0x22 SLT KECCAK256 0xC5 0xEC PUSH13 0x92B822B1724B9D48B1C353D0AC 0x1F 0xA7 0xAF CODESIZE 0x5D 0x21 0xEF 0xB5 0xE2 PUSH10 0x2C38F796BFE564736F6C PUSH4 0x43000813 STOP CALLER "
				},
				"gasEstimates": {
					"creation": {
						"codeDepositCost": "614800",
						"executionCost": "infinite",
						"totalCost": "infinite"
					},
					"external": {
						"addBook(uint256,string,string)": "infinite",
						"addMyBook(uint256,string,string)": "infinite",
						"books(uint256)": "infinite",
						"myBooks(address,uint256)": "infinite",
						"names(uint256)": "infinite"
					}
				},
				"methodIdentifiers": {
					"addBook(uint256,string,string)": "028414f2",
					"addMyBook(uint256,string,string)": "493ec707",
					"books(uint256)": "68744046",
					"myBooks(address,uint256)": "27d3553f",
					"names(uint256)": "4622ab03"
				}
			},
			"storageLayout": {
				"storage": [
					{
						"astId": 100,
						"contract": "contracts/MyContract.sol:Mappings",
						"label": "names",
						"offset": 0,
						"slot": "0",
						"type": "t_mapping(t_uint256,t_string_storage)"
					},
					{
						"astId": 105,
						"contract": "contracts/MyContract.sol:Mappings",
						"label": "books",
						"offset": 0,
						"slot": "1",
						"type": "t_mapping(t_uint256,t_struct(Book)117_storage)"
					},
					{
						"astId": 112,
						"contract": "contracts/MyContract.sol:Mappings",
						"label": "myBooks",
						"offset": 0,
						"slot": "2",
						"type": "t_mapping(t_address,t_mapping(t_uint256,t_struct(Book)117_storage))"
					}
				],
				"types": {
					"t_address": {
						"encoding": "inplace",
						"label": "address",
						"numberOfBytes": "20"
					},
					"t_mapping(t_address,t_mapping(t_uint256,t_struct(Book)117_storage))": {
						"encoding": "mapping",
						"key": "t_address",
						"label": "mapping(address => mapping(uint256 => struct Mappings.Book))",
						"numberOfBytes": "32",
						"value": "t_mapping(t_uint256,t_struct(Book)117_storage)"
					},
					"t_mapping(t_uint256,t_string_storage)": {
						"encoding": "mapping",
						"key": "t_uint256",
						"label": "mapping(uint256 => string)",
						"numberOfBytes": "32",
						"value": "t_string_storage"
					},
					"t_mapping(t_uint256,t_struct(Book)117_storage)": {
						"encoding": "mapping",
						"key": "t_uint256",
						"label": "mapping(uint256 => struct Mappings.Book)",
						"numberOfBytes": "32",
						"value": "t_struct(Book)117_storage"
					},
					"t_string_storage": {
						"encoding": "bytes",
						"label": "string",
						"numberOfBytes": "32"
					},
					"t_struct(Book)117_storage": {
						"encoding": "inplace",
						"label": "struct Mappings.Book",
						"members": [
							{
								"astId": 114,
								"contract": "contracts/MyContract.sol:Mappings",
								"label": "title",
								"offset": 0,
								"slot": "0",
								"type": "t_string_storage"
							},
							{
								"astId": 116,
								"contract": "contracts/MyContract.sol:Mappings",
								"label": "author",
								"offset": 0,
								"slot": "1",
								"type": "t_string_storage"
							}
						],
						"numberOfBytes": "64"
					},
					"t_uint256": {
						"encoding": "inplace",
						"label": "uint256",
						"numberOfBytes": "32"
					}
				}
			},
			"userdoc": {
				"kind": "user",
				"methods": {},
				"version": 1
			}
		}
	}
}